:020000040001F9
:10200000D82E002049220100512201001522010092
:102010005522010057220100592201000000000052
:102020000000000000000000000000005B22010032
:102030005D220100000000005F220100612201001A
:102040006322010063220100632201006322010078
:102050006322010063220100552301006322010075
:102060006322010063220100632201006322010058
:102070006322010063220100632201006322010048
:102080006322010055250100632201006322010043
:1020900079250100632201007D25010063220100F2
:1020A0006322010063220100632201006322010018
:1020B0006322010063220100000000000000000014
:1020C00063220100632201006322010063220100F8
:1020D000632201006322010063220100000000006E
:1020E00000000000000000000000000000000000F0
:1020F00000000000000000000000000000000000E0
:1021000000000000000000000000000000000000CF
:1021100000000000000000000000000000000000BF
:1021200000000000000000000000000000000000AF
:10213000000000000000000000000000000000009F
:10214000000000000000000000000000000000008F
:10215000000000000000000000000000000000007F
:10216000000000000000000000000000000000006F
:10217000000000000000000000000000000000005F
:10218000000000000000000000000000000000004F
:10219000000000000000000000000000000000003F
:1021A000000000000000000000000000000000002F
:1021B000000000000000000000000000000000001F
:1021C000000000000000000000000000000000000F
:1021D00000000000000000000000000000000000FF
:1021E00000000000000000000000000000000000EF
:1021F00000000000000000000000000000000000DF
:10220000DFF80CD000F094F8004800478534010056
:10221000D82E0020094B1EF0040F1CBFEFF30980DD
:102220001847EFF308800649064A884201D89042D1
:1022300002D88D464FF0000018470000C924010065
:10224000D82E0020D80E00200648804706480047B8
:10225000FEE7FEE7FEE7FEE7FEE7FEE7FEE7FEE756
:10226000FEE7FEE781250100012201002DE9F05F74
:102270000546002092469B468846064681464024F5
:102280001BE0284641464746224600F041F85346A7
:102290005A46C01A914110D311461846224600F002
:1022A00028F82D1A67EB01084F462246012000212D
:1022B00000F01FF817EB00094E41201EA4F10104A5
:1022C000DFDC484631462A464346BDE8F09FD2B29D
:1022D00001E000F8012B491EFBD270470022F6E70F
:1022E00010B513460A4604461946FFF7F0FF20468C
:1022F00010BD202A04DB203A00FA02F100207047CA
:102300009140C2F1200320FA03F319439040704733
:10231000202A04DB203A21FA02F00021704721FA3A
:1023200002F3D040C2F120029140084319467047A1
:10233000064C074D06E0E06840F0010394E8070012
:1023400098471034AC42F6D3FFF75EFFDC3E010045
:10235000FC3E01002DE9F04700268CB0DFF86091CB
:10236000B0464FF48075012437460696284601F0A2
:1023700065FA38B1D9F80403204203D0284601F0A9
:1023800053FA26432D1D64007F1CADB2082FEDD3F8
:102390004FF4BE74204601F051FA48B1204601F0D6
:1023A00043FA46F0004606AA0121002001F028FA6F
:1023B000444D16F0FF0F15D00127002437420DD0F1
:1023C00009EB8401D1F81005D1F81015C0F30420F1
:1023D00055F82420C1F3014102B190477F00641CED
:1023E000082CEBD3002E67DA4FF0FF30CDE90880E0
:1023F00000263446281910F8507F90F9000027F085
:10240000C008401C44D009A9404601F05FF858B309
:102410004FEA9719404600F0BDFE55F820701FB1F5
:10242000B9F1030F03D00FE0B9F1030F30D108A8C1
:102430004FEAD80208F00703815C4FF0010C0CFA58
:1024400003FC41EA0C0181544FF0A04101EB8800EC
:10245000D0F8000706A9C0F3014A404601F036F85B
:1024600018B1BAF1020F03D012E0BAF1030F0FD185
:10247000B9F1030F08D1BAF1020F1BD00221404677
:1024800001F0A2F9761CF6B217B149464046B847AA
:10249000641C042CAED3002E0ED06A46012100200D
:1024A00001F0AEF906990098884205D00690089888
:1024B00009909DE70321E2E70CB0BDE8F08700003A
:1024C00000600040BC0C002000F000F8BFF34F8F0C
:1024D00005480168054A01F4E06111430160BFF35A
:1024E0004F8F00BFFDE700000CED00E00400FA058F
:1024F00000F01F02012191404009800000F1E0201E
:10250000C0F88012704700F01F020121914040097D
:10251000800000F1E020C0F80011704700F01F02B9
:10252000012191404009800000F1E020C0F8001234
:1025300070474907090E002806DA00F00F0000F185
:10254000E02080F8141D704700F1E02080F80014AE
:102550007047000007480021C0F84011C0F844113E
:10256000C0F84811C0F84C11C0F80011C0F80411AF
:1025700001F0DCBB0010014001F026BB01F018BAED
:10258000F0B598480023021D01780126101D4FF078
:10259000805406290BD115782D0708D10578C5F38D
:1025A0000315032D06D0042D04D0052D02D00629D5
:1025B00007D00EE0B4F824538B4FC5F304253D60DB
:1025C00002E015782D0704D10578C5F30315032D16
:1025D00002D0062904D00FE0854F844D7D670EE0C0
:1025E00015782D0708D10578C5F30315032D06D0FE
:1025F000042D04D0052D02D0062907D00EE0D4F812
:1026000044527C4FC5F342353D6002E015782D07FA
:1026100004D10578C5F30315032D02D0062906D091
:1026200011E0754D2F6827F080772F600EE0157848
:102630002D0708D10578C5F30315032D06D0042D09
:1026400004D0052D02D006290AD011E04FF08045B4
:10265000C5F80C31C5F81031664D2D1F2B6002E016
:1026600015782D0704D10578C5F30315032D02D085
:10267000062905D00CE05F4F032564373D600AE072
:1026800015782D0704D10578C5F30315032D02D065
:1026900006290DD014E0594F05253D60574D78357A
:1026A0002E60564D08352B603F232D1F2B6002E016
:1026B00013781B0704D10378C3F30313052B02D04F
:1026C000062957D062E04E4B1B684E4D2B604C4B99
:1026D0001B1D1B682D1D2B60494B08331B682D1DCE
:1026E0002B60474B0C331B682D1D2B60444B103364
:1026F0001B682D1D2B60424B14331B682D1D2B6056
:102700003F4B18331B683F4D20352B603C4B1C332F
:102710001B682D1D2B603A4B20331B682D1D2B6031
:10272000374B24331B682D1D2B60354B28331B681A
:102730002D1D2B60324B2C331B682D1D2B60304B15
:1027400030331B682F4D40352B602D4B34331B68C5
:102750002D1D2B602A4B38331B682D1D2B60284BF9
:102760003C331B682D1D2B60254B40331B682D1DF2
:102770002B6002E013781B0708D10378C3F303131F
:10278000032B06D0042B04D0052B02D0062907D03A
:1027900019E0D4F858121C4A01F04F01116002E010
:1027A000117809070FD10078C0F30310032803D074
:1027B000042801D0052806D114480168C90702D0B1
:1027C0006FF0010101600C487438016841F4700138
:1027D0000160BFF34F8FBFF36F8F0E490C48086045
:1027E000F0BD0000E00F00F0403501400DF0ADBA43
:1027F00000C007403C050040FCED00E010560040E2
:102800000404001020C50040E40E00400004004015
:102810000090D003CC0B002002E008C8121F08C1B2
:10282000002AFAD170477047002001E001C1121F51
:10283000002AFBD1704700000121202803DA8140E3
:102840000548014003E0402802DA2038814009B100
:102850000120704700207047FC06FFBD082806D203
:1028600028B1012803D0042801D00120704700209E
:102870007047022000F014BA0E2807D1044882786D
:102880004168114302D1417000F01EBC7047000046
:10289000800B002000B5144885B000214170134A18
:1028A0004160817007CA8DE807004FF08050006ECC
:1028B0000FA1ADF80600D1E90001CDE9030168469A
:1028C00000F01AF808B100F011F9082103A8DBDFC5
:1028D00008B100F00BF900210846C4DF002801D040
:1028E00000F004F905B000BD800B0020D03D0100D0
:1028F000010300000000000010B504468378827ACE
:1029000041780078C2DF002813D123796279E18809
:102910002078D3DF00280CD1E1782078CDDF0028A3
:1029200007D1A178C90704D12189002901D02078D5
:10293000D1DF10BDFEB5044690F82D000027394DBB
:102940000A2819D00DDC042824D005281ED006281A
:1029500006D1002000F0B6F9012000F0BBF96F604D
:10296000FEBD11280FD08028FAD16078502819D0E8
:102970007228F5D100264FE0002000F0ABF90120CD
:1029800000F0A0F9FEBD00F09FFBFEBD002000F0AE
:1029900099F9E4E7002000F095F9012000F09AF998
:1029A000AF70FEBDA0788DF80000D4F80300CDF81C
:1029B0000100D4F80700CDF80500A07800F0E00091
:1029C0002870684600F068FBFEBD2978602900D1B8
:1029D0002F7029782031C9B22970A278130607D543
:1029E000F3000833181A401C02D141F0800028700F
:1029F000297802F01F0008438DF8000004EBC600A0
:102A000050F8031FCDF801104068CDF80500684666
:102A100000F042FB761CF6B22078411EB1EBC60FE7
:102A2000D3DCFEBD800B002070B50024064D06E00F
:102A30006868012110F8340000F0B2FD641C2878A9
:102A40008442F5D3002070BD980B0020F8B51546E0
:102A50000C460646052A01D20720F8BD00F086FE86
:102A600018B900F055FE0028F7D1104900204E603B
:102A70000C70C1E902500E4D08610DE006EBC40078
:102A80006968009181788DF801100078094A6946DB
:102A900000F0D8FD0028E0D1641EE4B2EED2BDE81B
:102AA000F840054A0021024800F02CB8980B00209D
:102AB000143E0100F1320100513201000948006862
:102AC000C00700D000BEBFF34F8F0648E43801684E
:102AD000054A01F4E06111430160BFF34F8F00BF6D
:102AE000FDE70000F0ED00E00400FA050EB500215E
:102AF0000091CDE901106A4644F20100FFF7DEFFC4
:102B00000EBD0000074B9B7823B12AB120B10068AD
:102B1000037C1BB108207047072070474174426155
:102B200000207047340D002070B500F0B7FF10484A
:102B300000240B21047044700E4D817014206C60D1
:102B40002C706C70FFF7D4FC07211420FFF7F1FC08
:102B50001420FFF7D8FC0848046007211120FFF774
:102B6000E8FC0548001F0068A860002070BD000058
:102B7000340D0020AC0B0020081501402DE9FC4766
:102B8000DFF8789099F8023073B368B3052902D260
:102B90000720BDE8FC87436933B3437C012B25D074
:102BA000002704460025884616468DF800506846E2
:102BB00000F038F801A801F0F3F8C8B10121017064
:102BC0000F4944600968C0E90218C0E904769DF81D
:102BD000040089F801009DF8000000F047F8142077
:102BE000FFF79CFC2846D4E70820D2E70F46D8E739
:102BF00004259DF8000000F039F8F3E7340D0020BB
:102C0000041501400649897839B130B1416921B1D3
:102C100000210174022101F065B80820704700000E
:102C2000340D002030B5EFF3108172B60D4A946870
:102C3000012324B10370002900D162B630BD936036
:102C40004FF0E023D3F88051074C25401560C3F8BE
:102C50008041D3F8844154605A17C3F8842100227C
:102C60000270E8E7400E0020FC06FFBD0B498A68B1
:102C7000002A11D000280FD1EFF3108072B60B6834
:102C80004FF0E022C2F800314B68C2F80431002254
:102C90008A60002800D162B670470000400E002014
:102CA00007490B5C4FF0A041D1F804250120984062
:102CB00020EA0203C1F808351040C1F80C0570473E
:102CC000DC3D01000249085C012100F08EBD0000DE
:102CD000DC3D01000249085C002100F086BD0000D7
:102CE000DC3D01000649095C4FF0A040D0F8040526
:102CF000C84010F0010000D0012080F001007047B2
:102D0000DC3D01007CB50024084E25460122305DE3
:102D1000009500231146019500F032FD641C042C3F
:102D2000F4D3BDE87C4000F003B80000DC3D0100B6
:102D300010B500242046FFF7C5FF641C042CF9D30E
:102D400010BD10B500242046FFF7C4FF641C042CFE
:102D5000F9D310BD10B50246064B4FF0FF300021ED
:102D60005C5C944201D1084610BD491C0429F7D38C
:102D700010BD0000E03D01002DE9F0470D46814601
:102D8000FFF7E8FF0446042836D2DFF874801B48BA
:102D90001C4EA8F10C0725B3012D0ED0022D2BD10E
:102DA00004EB440030444578002D25D0B968002953
:102DB00022D02846BDE8F047084704EB4401755C83
:102DC0000E44717849B10E4A4FF40041093A8068C7
:102DD000FFF7D4FE08B987F80390B17808F804101B
:102DE000E2E78068FFF70EFF04EB4401314418F876
:102DF00004008D78A842D7D0BDE8F087E43D0100FB
:102E0000940B0020900C002070B50023042810D2F1
:102E10000D4D00EB4004012A02D101290CD0002203
:102E2000094E00EB4000304461B1012906D002296F
:102E300006D00723184670BD0E30C2B22A55F9E7F6
:102E40004270F7E78270F5E7900C002070B50646F7
:102E50001E480024C0E90161B00720D500250122E9
:102E600011462846FFF7D0FF6D1C0446042D02D200
:102E7000002CF4D013E094B940F2666204211448A7
:102E8000FFF7E4FD04000AD1FFF7CEFD040006D1F0
:102E90000F48104A0021001FFFF734FE0446F007D8
:102EA00001D0FFF72FFF74B909480B4A00210C38F5
:102EB000FFF728FE040006D10548084A012108381A
:102EC000FFF720FE0446204670BD0000880B00205E
:102ED000F03D010029310100793301007328010020
:102EE0002DE9F05F6A4C054600266078B34618B1BC
:102EF00084F801B000F028FA664F4FF47A694FF475
:102F0000C87A4FF00108182D62D2DFE805F0AC0C4A
:102F10000C31404D62676B746B74BE7D7D7D7D7D31
:102F2000ACAFB2B5BEBE0020FFF7DCFE00284FF00C
:102F3000000008D0FFF7C6FE022D02D14FF4E16079
:102F400008E0484606E0FFF7C5FE022D01D1C82083
:102F500000E05046410CC0034FF4FA72801841F172
:102F60000001257052000023FFF780F901462AE096
:102F70000020FFF7B7FE00284FF0000004D0FFF755
:102F8000A1FE4FF44870E5E7FFF7A4FEDFE700205D
:102F9000FFF7A8FE00284FF0000002D0FFF792FED6
:102FA000CFE7FFF797FED4E70020FFF79BFE00284E
:102FB0004FF0000002D0FFF785FE01E0FFF78AFE28
:102FC000257041F69A1100223868FFF7D7FD0646B2
:102FD00046E00020FFF764FE257008E0002051E085
:102FE00025703DE084F801800120FFF759FE0022A2
:102FF00040F6CD41E8E784F801800120FFF750FE5C
:1030000000224FF48041DFE77868FFF7FBFD0646BA
:10301000D5F1110000D02EB10220FFF753FE84F845
:1030200002B01DE0012816D980B2C8214843C1175B
:10303000C90341EA5041C0034FF4FA72801841F1CC
:10304000000152000023FFF711F9014600227868C1
:10305000FFF794FD06460220FFF73CFE84F802804D
:103060003046BDE8F09F00F06FF9B9E700F06CF969
:10307000B4E700F069F904E000F066F90020FFF71A
:1030800029FE0120FFF726FEAAE7FFF75AFEA7E771
:10309000880B0020E43D010010B50078094C41097F
:1030A00007D0000604D50020FFF70CFE0020A0701A
:1030B00010BD0020FFF70EFE0120FFF703FE0120E8
:1030C000F5E70000800B002070B5154C0026802528
:1030D0006068B0F5005F22D200B90126C0F500504B
:1030E000802802D846F00206C5B280210D48FFF7BD
:1030F000F5F80C4A002005E061781154491C401C89
:103100006170C0B22946A842F6D33346054A002072
:10311000C9DF08B1FFF7EAFC60682844606070BD51
:10312000800B0020D00B002000780221FFF724BE86
:1031300005494FF0FF32082841F8202002D3084407
:1031400080F8482070470000BC0C0020F0B54FF01C
:10315000FF3512B10023082601E008230C260C4C91
:1031600005E000BF54F823707F1C04D05B1CB34201
:10317000F8D32846F0BD26185DB286F8305044F8E2
:103180002310002AF5D1E11881F84800F1E700008A
:10319000BC0C00200249084490F930007047000040
:1031A000BC0C00202DE9F05F26484168F1B3DFF840
:1031B00098B00E688146DBF8004087688078E11B94
:1031C00021F07F45ED1CB0B9DFF880804FF48030EE
:1031D000C8F84403C8F804031120FFF789F9112047
:1031E000FFF791F94FF0010AC8F800A02F2000F076
:1031F00075F989F802A0B54200D23546124BE8199C
:103200003C3320F07F401860DBF800105A46091B61
:1032100021F07F41001B20F07F40C91C81420FD963
:10322000106818602F2000F059F900E004E0BDE8B4
:10323000F05F1120FFF772B9BDE8F05F00F02EBC1F
:10324000BDE8F09FAC0B00200415014000100140C8
:103250002DE9F04100260125144C22E06068226926
:1032600000EBC607387805FA00F1114217D08A43FF
:10327000226100F043FA02463878E36805FA00F16B
:10328000194002FA00F3994209D17978012901D055
:10329000012100E0002151407A6802B19047761C7C
:1032A000F6B220788642D9D3BDE8F081980B002091
:1032B0000E4910B50A784C780023A24212D0521C55
:1032C000D2B20A70022A00D10B70084A0B780C3275
:1032D00052F8232002608868104420F07F40886004
:1032E000012010BD0360002010BD0000AC0B0020C9
:1032F0002DE9F041124E07460125BD403068FFF729
:1033000081FC00280DD10F4C2069284207D1384696
:1033100000F0F4F90028E06805D0284304E0A84351
:103320002061BDE8F081A843E06020692843206166
:10333000A1683068BDE8F0410022FFF71FBC000023
:10334000143E0100980B00200A4810B5807860B147
:10335000002401E0022C06D02046FFF7B3FC641CD9
:10336000042CF7D310BD0324F6E7BDE81040FFF7A7
:10337000DFBC0000880B002003480179C90702D098
:103380000078FFF7ADBD7047880B00202DE9F047AE
:10339000394E002780463D46DFF8E090D6F804A07D
:1033A00057E003D00446D0F81C8035E099F800209F
:1033B00002EB4201521CD2B289F8002009EBC10194
:1033C00099F80230091D9A4201D189F800504868E5
:1033D0000A780446012A12D0022A02D0032A3BD1DD
:1033E00008E000F04FFC00B10127257434E00574BB
:1033F000C06900E070680028F9D170602CE0207C82
:1034000050BB88686060C868A0600869E06048696F
:10341000A061F07800B165606268B168184B501A1D
:1034200020F07F40984202D2A168084406E0881A42
:10343000A16820F07F40814202D9081A206000E094
:10344000256065600120A56020742046E56100F0DC
:10345000FBFBB8F10000A4D199F8001099F8010025
:103460008142A3D117B97168514502D00120BDE84E
:10347000F0870020FBE70000AC0B0020340D00209B
:10348000FFFF7F00FFF750FB08B1FFF72FFB0E494E
:103490000320FFF7DBFC08B1FFF728FB00F0D6F9AB
:1034A00008B1FFF723FB00F037FA08B1FFF71EFB66
:1034B00000F002FA08B1FFF719FBFFF7EBF900BFC4
:1034C00000F0D8F9FCE7000079280100C20800F0FC
:1034D00007030120895C98400840704700283ED0CF
:1034E0001F49204A096800BF00BF00BF00BF00BFDE
:1034F00000BF00BF00BF91422FD000BF00BF00BF80
:1035000000BF00BF00BF00BF00BF00BF00BF00BFC3
:1035100000BF00BF00BF00BF00BF00BF00BF00BFB3
:1035200000BF00BF00BF00BF00BF00BF00BF00BFA3
:1035300000BF00BF00BF00BF00BF00BF00BF00BF93
:1035400000BF00BF00BF00BF00BF00BF00BF00BF83
:1035500000BF00BF00BF00BF00BF0138C3D170472C
:10356000CC0B00200024F4004907090E002806DADD
:1035700000F00F0202F1E02282F8141D03E000F1D6
:10358000E02282F8001400F01F020121914040095E
:10359000800000F1E020C0F88012C0F800117047F0
:1035A0002DE9F0418846054600F060FA234E0028D8
:1035B00028461AD0FFF7EEFD304490F84800800905
:1035C000032802D001280ED007E04FF0A040D0F829
:1035D0001005E84010F0010F05D003212846BDE892
:1035E000F04100F0F1B80221F8E700F04BFA0028B2
:1035F00022D02846FFF7CEFD04464FF4807000EB42
:1036000084000F4F81B207EB8400D0F8102542F000
:103610000102C0F81025084600F006F9B8F1000FC5
:103620000AD02846FFF7B6FD56F82000002803D040
:103630000120A040C7F80403BDE8F081BC0C0020C5
:10364000006000402DE9FC41DFF8A480044608EB4F
:103650000400002790F930001346C0170E46401CA6
:1036600001D0082741E0F27819462046FFF76EFDA9
:103670000546401C38D0B07850B14FF0A04000EB68
:103680008400D0F8001721F00201C0F8001707E00D
:1036900000217378204600910A46019100F082F8DB
:1036A000F078C0B11348317800EB8500D0F81025D0
:1036B000114B1A40C0F810254FF4F8524FF4403324
:1036C00002EA042203EA01410A43D0F810150A4332
:1036D000C0F8102509E008EB0500327810F8481F03
:1036E00041EA8211017000E004273846BDE8FC8100
:1036F000BC0C002000600040FFE0FCFF4FF0A04148
:10370000D1F81015C14011F0010000D00120704720
:1037100070B5144D95F8540008B1082070BD002014
:10372000411E2A18401CC0B282F830102028F8D35D
:1037300000242046FFF7FCFC641CE4B20C2CF8D3F8
:1037400007210620FFF710FF4FF4BE7000F06CF861
:1037500005494FF00040C1F80403012085F85400EA
:10376000002070BDBC0C002000600040034890F8B1
:103770005400002800D0012070470000BC0C00203D
:1037800070B541EA4201DDE904564FF0A04441EA38
:10379000830141EA052104EB800041EA0641C0F8BB
:1037A000001770BD70B541EA4201DDE904564FF0E3
:1037B000A04441EA830141EA052104EB800041EA8B
:1037C0000641C0F8001770BD4FF0A04202EB800028
:1037D000D0F8002722F44032C0F80027D0F80027A4
:1037E00042EA0141C0F80017704701224FF0A043A0
:1037F000824011B1C3F808257047C3F80C25704703
:1038000018B5084B6C4601441B68009306E000BFE6
:1038100054F82030D3F81035401C08C28142F7D844
:1038200018BD0000103E0100034908B508440021FE
:1038300001600068009008BD0060004002494058E7
:10384000012800D00020704700600040064910B5F4
:1038500000204870091D0860BFF35F8F03490448CA
:1038600000F0DCF8002010BDC00B0020343E010049
:103870004C0E002008B500208DF800006846FFF7C8
:10388000D1F9F1EE100A20F09F00E1EE100ABFF32B
:103890005F8F08494020C1F880029DF80000FFF7C3
:1038A000E5F900F097F808B13EDF08BD20BF40BF42
:1038B00020BF08BD04E000E00EB5034A07CA8DE84A
:1038C00007006846FADF0EBDB43E010030B58FB088
:1038D0000DF12D040BAD6A4621462846C1DF30B1FB
:1038E000052814D00FB0BDE83040FFF7FFB80949F4
:1038F0000CA800F093F806E0D0E90031684698473C
:103900000CA800F0A2F80E980028E4D0F4E70FB05D
:1039100030BD0000A83E010038B5184C207808B131
:10392000082038BD0125A570002000F0F7F8112807
:1039300021D0002000F00AF9114812A21B490068AA
:103940000090684610DF0028EBD12570A0706070F1
:103950000721162000F0C0F808B1FFF7C7F80721CB
:10396000152000F0B9F808B1FFF7C0F800F004F92D
:10397000012000F0EBF8002038BD0000C80B00204B
:10398000503E0100333833312D353231642D3764E8
:1039900066392D323464382D656666332D343637FA
:1039A000622D323235662D6130306500BD2A01004E
:1039B0000EB50749684600F031F805E0D0E900107F
:1039C0008847684600F041F802980028F6D10EBDFD
:1039D0006C3E01000148007870470000C80B0020D1
:1039E0001FB5684648DF30B1052814D004B0BDE8E3
:1039F0001040FFF77BB8084901A800F00FF806E077
:103A0000D0E900210098904701A800F01EF8039823
:103A10000028E6D0F4E71FBDD03E01000160096830
:103A20004160AFF3008010B5D0E90021536899429E
:103A300001D1002104E0D1E90034A34202D01946AB
:103A4000816010BD08314160F0E7816800290BD02A
:103A5000026892680A44826041684B689A4203D1C6
:103A600008314160FFF7DFBF704700000449084498
:103A700090F93000082801DB0120704700207047D2
:103A8000BC0C00200449084490F93000082801D2F9
:103A90000120704700207047BC0C002070B5012643
:103AA00070044FF0E0210025C1F88001084C40105F
:103AB000C4F84803C4F8080366602F20FFF70EFD22
:103AC000A660044C2F20A560FFF708FDA57070BD0F
:103AD00000100140AC0B002070B50D460446FEF707
:103AE000ABFE70B12846FEF7B9FE68B16807000E5C
:103AF000002C0CDA04F00F0101F1E02181F8140D23
:103B000009E042F2010070BD42F2020070BD04F112
:103B1000E02484F80004002070BD00003EB5044697
:103B200009496846FFF77AFF08E000BFD0E90021A5
:103B30002046904730B16846FFF787FF029800287B
:103B4000F4D13EBD11203EBD543E01003EB50446B9
:103B500008496846FFF762FF07E000BFD0E900218F
:103B6000204690476846FFF770FF02980028F5D17D
:103B70003EBD0000603E010010B51620FEF75CFE61
:103B800080B10F4890F800044009FEF767FE60B16D
:103B90000C4882684FF480016AB1016841F48001E9
:103BA000016010BD42F2010001E042F20200BDE8F6
:103BB0001040FEF79BBF4FF0E020C0F8001110BD91
:103BC00016E000E0400E00202DE9F84F1D4C0025C6
:103BD0006846D4E901A6FFF76BFB002738B3002342
:103BE000009A61681CE0D1F800C00846944503D9EA
:103BF000ACEB02020A6015E0A2EB0C026344076022
:103C0000D0F80CC0C1698146BCF1000F08D006EBAA
:103C1000030828F07F48C0E9018CC9F81C5005460C
:103C20000029E0D128466160FFF7B0FB03E0284699
:103C3000FFF7ACFB10B15046FFF7B4FAE770BDE8F0
:103C4000F88F0000AC0B00200D4B10B5596831B156
:103C500002680C68A24204D8A21A0A60C1615860C6
:103C600010BD0B4603E00B46C969121B21B10C685D
:103C70009442F8D3A41A0C600260C161D86110BDEF
:103C8000AC0B00202DE9F041144E77683D462C46E0
:103C900003E0844204D02546E469002CF9D11BE0FE
:103CA000D4B1A5420BD1F869706040B90C4901202C
:103CB00088600021B160F0702F20FFF70FFC2168B1
:103CC000E069E86110B102681144016070688742E0
:103CD00002D00120BDE8F0810020FBE7AC0B002002
:103CE000001001407CB5064600240D468DF80040CA
:103CF0006846FEF797FF01A800F052F870B1057012
:103D0000094946609DF8040048709DF80000FEF7E0
:103D1000ADFF1420FEF702FC20467CBD04249DF874
:103D20000000FEF7A3FFF7E7340D00202DE9F04176
:103D3000194D6C68002C2CD0184800270068A96821
:103D4000B846401A20F07F462068B0420CD8214681
:103D5000361A0744E469087C20B181F8108088692C
:103D600049698847002CEFD129786878814206D1CB
:103D7000401CC0B26870022801D185F80180064855
:103D800069780C3040F82170BDE8F0411420FEF74E
:103D9000C5BBBDE8F0810000AC0B0020041501405C
:103DA0000A494A788B78521CD2B2934200D1002241
:103DB0000B78934201D1002070470270487800EBE5
:103DC000400001EBC000001D70470000340D0020D2
:103DD000001000420102000000200000181F111412
:103DE00006071013500C0020700C00209C0C0020C3
:103DF00006000300792D010007000300792D010062
:103E000010000300792D010013000300792D01003B
:103E100000000050140D002003000000000000000E
:103E20000000000000000000000000000000000092
:103E3000000000001C3E0100343E010004000000B0
:103E40000000000000000000000000000000000072
:103E500001000007403E0100503E01000800000044
:103E6000783E0100883E010008000000883E010005
:103E7000983E010008000000000000000000000063
:103E80000000000000000000043F0100143F01009A
:103E90000000000000000000000000000000000022
:103EA000FC3E0100043F0100983E0100A83E0100D5
:103EB0000800000001002000580E002080000000D3
:103EC00000000000000000000000000000000000F2
:103ED000C03E0100D03E010008000000143F010078
:103EE000800B00205000000018280100643F0100F2
:103EF000D00B0020082300002828010035290100EC
:103F000000000000CD38010000000000E139010090
:103F100000000000000000000000000000000000A1
:103F20000000000000000000000000000000000091
:103F30000000000000000000000000000000000081
:103F40000000000000000000000000000000000071
:103F50000000000000000000000000000000000061
:043F60000090D003FA
:0400000500012201D3
:00000001FF
