:020000040000FA
:10000000F02900201D040000250400001502000056
:10001000290400002B0400002D0400000000000053
:100020000000000000000000000000002F0400009D
:10003000310400000000000033040000350400001B
:100040003704000037040000790A0000370400007C
:100050003704000037040000A10500003704000049
:1000600037040000370400003704000037040000A4
:100070003704000037040000370400003704000094
:1000800037040000B5070000370400003704000003
:10009000D907000037040000DD0700003704000026
:1000A0003704000037040000370400003704000064
:1000B00037040000370400000000000000000000CA
:1000C0003704000037040000370400003704000044
:1000D000370400003704000037040000000000006F
:1000E0000000000000000000000000000000000010
:1000F0000000000000000000000000000000000000
:1001000000000000000000000000000000000000EF
:1001100000000000000000000000000000000000DF
:1001200000000000000000000000000000000000CF
:1001300000000000000000000000000000000000BF
:1001400000000000000000000000000000000000AF
:10015000000000000000000000000000000000009F
:10016000000000000000000000000000000000008F
:10017000000000000000000000000000000000007F
:10018000000000000000000000000000000000006F
:10019000000000000000000000000000000000005F
:1001A000000000000000000000000000000000004F
:1001B000000000000000000000000000000000003F
:1001C000000000000000000000000000000000002F
:1001D000000000000000000000000000000000001F
:1001E000000000000000000000000000000000000F
:1001F00000000000000000000000000000000000FF
:10020000DFF80CD000F09CF900480047F320000014
:10021000F0290020094B1EF0040F1CBFEFF30980EA
:100220001847EFF308800649064A884201D89042F1
:1002300002D88D464FF00000184700001507000057
:10024000F0290020F009002030B4044654E8000FE3
:100250000D4644E80053002BF8D1156030BC7047C0
:1002600030B4044654E8000F40EA010544E8005366
:10027000002BF7D1156030BC704730B4044654E809
:10028000000F00EA010544E80053002BF7D1156088
:1002900030BC704730B4044654E8000F80EA0105D2
:1002A00044E80053002BF7D1156030BC704730B4E0
:1002B000044654E8000F00EB010544E80053002B0E
:1002C000F7D1156030BC704730B4044654E8000FD5
:1002D000A0EB010544E80053002BF7D1156030BCBA
:1002E0007047000030B4044654E8000F0D4644E85F
:1002F0000053002BF8D1156030BC704730B4044671
:1003000054E8000F40EA010544E80053002BF7D100
:10031000156030BC704730B4044654E8000F00EA62
:10032000010544E80053002BF7D1156030BC70473D
:1003300030B4044654E8000F80EA010544E8005355
:10034000002BF7D1156030BC704730B4044654E838
:10035000000F00EB010544E80053002BF7D11560B6
:1003600030BC704730B4044654E8000FA0EB0105E0
:1003700044E80053002BF7D1156030BC70470000F3
:1003800030B4044654E8000F0D4644E80053002BF7
:10039000F8D1156030BC704730B4044654E8000F03
:1003A00040EA010544E80053002BF7D1156030BC4A
:1003B000704730B4044654E8000F00EA010544E8F1
:1003C0000053002BF7D1156030BC704730B40446A1
:1003D00054E8000F80EA010544E80053002BF7D1F0
:1003E000156030BC704730B4044654E8000F00EB91
:1003F000010544E80053002BF7D1156030BC70476D
:1004000030B4044654E8000FA0EB010544E8005363
:10041000002BF7D1156030BC7047000006488047BC
:1004200006480047FEE7FEE7FEE7FEE7FEE7FEE7D9
:10043000FEE7FEE7FEE7FEE7E1070000010200003D
:100440002DE9F05F0546002092469B468846064609
:10045000814640241BE0284641464746224600F09C
:100460005FF853465A46C01A914110D311461846B8
:10047000224600F046F82D1A67EB01084F46224647
:100480000120002100F03DF817EB00094E41201E2D
:10049000A4F10104DFDC484631462A464346BDE864
:1004A000F09F000000487047FC46000040EA01034E
:1004B0009B0703D009E008C9121F08C0042AFAD21A
:1004C00003E011F8013B00F8013B521EF9D27047DE
:1004D000D2B201E000F8012B491EFBD27047002286
:1004E000F6E710B513460A4604461946FFF7F0FF33
:1004F000204610BD421C10F8011B0029FBD1801AB8
:100500007047202A04DB203A00FA02F100207047ED
:100510009140C2F1200320FA03F319439040704741
:10052000202A04DB203A21FA02F00021704721FA48
:1005300002F3D040C2F120029140084319467047AF
:10054000064C074D06E0E06840F0010394E8070020
:1005500098471034AC42F6D3FFF756FE64480000CB
:100560008448000030B58C1810F8012B12F00F03EE
:1005700001D110F8013B120906D110F8012B03E05C
:1005800010F8015B01F8015B5B1EF9D101E001F895
:10059000013B521EFBD1A142E6D3002030BD00003A
:1005A0002DE9F04700268CB0DFF86091B0464FF49B
:1005B0008075012437460696284602F08BFA38B13A
:1005C000D9F80403204203D0284602F079FA2643E2
:1005D0002D1D64007F1CADB2082FEDD34FF4BE7407
:1005E000204602F077FA48B1204602F069FA46F058
:1005F000004606AA0121002002F04EFA444D16F0F2
:10060000FF0F15D00127002437420DD009EB8401DC
:10061000D1F81005D1F81015C0F3042055F82420A6
:10062000C1F3014102B190477F00641C082CEBD359
:10063000002E67DA4FF0FF30CDE9088000263446FF
:10064000281910F8507F90F9000027F0C008401CCE
:1006500044D009A9404601F04AFE58B34FEA971921
:10066000404601F0EBFA55F820701FB1B9F1030FC5
:1006700003D00FE0B9F1030F30D108A84FEAD80238
:1006800008F00703815C4FF0010C0CFA03FC41EA0F
:100690000C0181544FF0A04101EB8800D0F8000715
:1006A00006A9C0F3014A404601F021FE18B1BAF193
:1006B000020F03D012E0BAF1030F0FD1B9F1030F0B
:1006C00008D1BAF1020F1BD00221404602F0C8F94E
:1006D000761CF6B217B149464046B847641C042C54
:1006E000AED3002E0ED06A460121002002F0D4F9CC
:1006F00006990098884205D00690089809909DE7D1
:100700000321E2E70CB0BDE8F08700000060004084
:1007100094020020044602F0BBFC00BF02F0B6FACF
:100720000028FBD1204600F001F80000BFF34F8FF6
:1007300005480168054A01F4E06111430160BFF317
:100740004F8F00BFFDE700000CED00E00400FA054C
:1007500000F01F02012191404009800000F1E020DB
:10076000C0F88012704700F01F020121914040093B
:10077000800000F1E020C0F80011704700F01F0277
:10078000012191404009800000F1E020C0F80012F2
:1007900070474907090E002806DA00F00F0000F143
:1007A000E02080F8141D704700F1E02080F800146C
:1007B0007047000007480021C0F84011C0F84411FC
:1007C000C0F84811C0F84C11C0F80011C0F804116D
:1007D00003F04EBC0010014003F098BB02F00ABECB
:1007E000F0B598480023021D01780126101D4FF036
:1007F000805406290BD115782D0708D10578C5F34B
:100800000315032D06D0042D04D0052D02D0062992
:1008100007D00EE0B4F824538B4FC5F304253D6098
:1008200002E015782D0704D10578C5F30315032DD3
:1008300002D0062904D00FE0854F844D7D670EE07D
:1008400015782D0708D10578C5F30315032D06D0BB
:10085000042D04D0052D02D0062907D00EE0D4F8CF
:1008600044527C4FC5F342353D6002E015782D07B8
:1008700004D10578C5F30315032D02D0062906D04F
:1008800011E0754D2F6827F080772F600EE0157806
:100890002D0708D10578C5F30315032D06D0042DC7
:1008A00004D0052D02D006290AD011E04FF0804572
:1008B000C5F80C31C5F81031664D2D1F2B6002E0D4
:1008C00015782D0704D10578C5F30315032D02D043
:1008D000062905D00CE05F4F032564373D600AE030
:1008E00015782D0704D10578C5F30315032D02D023
:1008F00006290DD014E0594F05253D60574D783538
:100900002E60564D08352B603F232D1F2B6002E0D3
:1009100013781B0704D10378C3F30313052B02D00C
:10092000062957D062E04E4B1B684E4D2B604C4B56
:100930001B1D1B682D1D2B60494B08331B682D1D8B
:100940002B60474B0C331B682D1D2B60444B103321
:100950001B682D1D2B60424B14331B682D1D2B6013
:100960003F4B18331B683F4D20352B603C4B1C33ED
:100970001B682D1D2B603A4B20331B682D1D2B60EF
:10098000374B24331B682D1D2B60354B28331B68D8
:100990002D1D2B60324B2C331B682D1D2B60304BD3
:1009A00030331B682F4D40352B602D4B34331B6883
:1009B0002D1D2B602A4B38331B682D1D2B60284BB7
:1009C0003C331B682D1D2B60254B40331B682D1DB0
:1009D0002B6002E013781B0708D10378C3F30313DD
:1009E000032B06D0042B04D0052B02D0062907D0F8
:1009F00019E0D4F858121C4A01F04F01116002E0CE
:100A0000117809070FD10078C0F30310032803D031
:100A1000042801D0052806D114480168C90702D06E
:100A20006FF0010101600C487438016841F47001F5
:100A30000160BFF34F8FBFF36F8F0E490C48086002
:100A4000F0BD0000E00F00F0403501400DF0ADBA00
:100A500000C007403C050040FCED00E0105600409F
:100A60000404001020C50040E40E004000040040D3
:100A70000090D003C00000200448017F04480029F2
:100A8000024901D003F009BC03F078BBEC0200205E
:100A90000020004002E008C8121F08C1002AFAD155
:100AA00070477047002001E001C1121F002AFBD1EE
:100AB000704700000121202803DA814005480140E9
:100AC00003E0402802DA2038814009B10120704754
:100AD00000207047FC06FFBD082806D228B1012877
:100AE00003D0042801D00120704700207047022065
:100AF00000F0C6BD0A788270084601F02DB80000EB
:100B000010B50C78AC230E4845F2AA52AA2C0ED090
:100B1000AB2C0ED0BA2C11D0BC2C07D1BD22027345
:100B2000D1F80220C0F80E20C988418210BD03739D
:100B300002E0037349784173C28110BDBB22EEE726
:100B40009C01002040688178022901D00221817037
:100B50007047000010B50C4602F078FB122C0BD049
:100B600006DC012C08D0102C06D0112C0AD103E091
:100B7000502C01D0512C05D12146BDE8104002482F
:100B800000F088BA10BD0000D40100207CB50C46EE
:100B90000A7818490270D1E90235C0E9033500230B
:100BA00001934361BDF8045005830193C0F81A30E6
:100BB000BDF80450C58301930362BDF804308384FB
:100BC000D1E90035CDE90035C0F82630BDF8043054
:100BD0004385D1E90431C0E90B310748032100887E
:100BE00001EB004005A102F0A7F92046BDE87C40DA
:100BF00000F0E8BA44450000C4000020414E5420F3
:100C0000422D505752206368616E6E656C202575C9
:100C100020696E69740000004A7802700A78427098
:100C20004A88C270120A02718A884271120A82715D
:100C3000084602F059BC10B50C4600F0CFF820462B
:100C4000BDE8104002F0EABC10B50C4600F0C6F852
:100C50002046BDE8104002F0F7BC000010B50C467D
:100C6000017821700178AF2918D00CDCAA2936D080
:100C700004DC102918D0122931D11EE0AB290BD089
:100C8000AC292CD10AE0BA2923D0BB2921D0BC2918
:100C90001FD0BD2923D11CE0407818E04178617055
:100CA000B0F8050060801AE00F480321008801EBCE
:100CB00000400EA102F03CF911E04078C10703D0DA
:100CC000800703D5012002E0FF2000E000206070D3
:100CD00005E050F8011FC4F802108088E08020462B
:100CE000BDE8104002F0C6BCDC0000204E6F74204E
:100CF000737570706F7274656400000070B504469F
:100D00000D46084602F0B6FC297821702878AF28F5
:100D10001AD025DCAA2832D012DC10283DD01228A7
:100D20001DD1FF220521A01CFFF7D2FB607820F027
:100D3000FC0060706978FF2939D040F0010038E08C
:100D4000AB2823D0AC280AD1FF220321A01CFFF737
:100D5000BFFB6878607068886071000AA07170BD20
:100D6000BA2805D0BB2803D0BC2801D0BD28F6D1B5
:100D7000D5F8020044F8010FE888A08070BDFF227A
:100D80000621601CBDE87040FFF7A2BBFF220521D1
:100D9000A01CFFF79DFB687811E00B480321008839
:100DA000BDE8704001EB004008A102F0C1B820F09E
:100DB000010060706978012903D020F002006070A2
:100DC00070BD40F00200FAE7DC0000204E6F742096
:100DD000737570706F727465640000000A78027039
:100DE0004A7842704B88C3701B0A0371898841712D
:100DF000090A8171704700002DE9F04704464FF45D
:100E00007A7940884A464FF4006103F05BFB86B272
:100E1000A0880A22202103F055FB164D07464FF00B
:100E200003082988227808EB014013A102F084F816
:100E30002988627808EB014018A102F07DF8B6FB22
:100E4000F9F109FB1163B6FBF9F2298808EB0140BF
:100E50001BA102F078F80A21B7FBF1F0B7FBF1F221
:100E600001FB1073298808EB0140BDE8F0471FA182
:100E700002F069B80C0100206576656E7420636F1E
:100E8000756E743A20202020202020202020202051
:100E90002020202020202020257500007469636B0D
:100EA0003A20202020202020202020202020202028
:100EB0002020202020202020202020202575000018
:100EC000706572696F643A20202020202020202045
:100ED0002020202020202020202020202020202012
:100EE00025752E253033757300000000616363752E
:100EF0006D756C6174656420746F727175653A20EC
:100F000020202020202020202020202025752E2574
:100F10003031754E6D0000001CB590F82C200B7818
:100F20009A4219D190F82D20032A16D0802A13D185
:100F300042784F2A10D10C4610F8031F01290BD11B
:100F40006946401CFFF78AFE61680120887060686E
:100F500069464268204690471CBDBDE81C400846D3
:100F600000F0A6B930B49368836053684360147886
:100F70005C704368D2685A60436800229A70436884
:100F80001A7030BCFFF702BE10B5044600F090F9AD
:100F9000064803212278008801EB004004A101F0FB
:100FA000CBFF20780021C4DF10BD0000C40000206A
:100FB000414E5420422D505752202575206F7065A8
:100FC0006E00000010B504460079002813D104F12A
:100FD000140104F10C0002F093FE04F12C0104F161
:100FE000240002F08DFE04F1440104F13C00BDE850
:100FF000104002F085BE10BD10B5044600790028EF
:1010000013D104F1140104F10C0002F087FE04F185
:101010002C0104F1240002F081FE04F1440104F1EA
:101020003C00BDE8104002F079BE10BD10B5096863
:1010300001600271044600204FF4FA62A060C4E926
:1010400005020A22E26184F82000FE22C4E90B02B4
:101050000122626384F838006423E264C4E9110366
:1010600084F85000087D40F08000087504F11401F8
:1010700004F10C0002F060FE04F12C0104F12400E4
:1010800002F05AFE04F1440104F13C00BDE81040B6
:1010900002F052BE2DE9F0410A4600F12C0104464F
:1010A0000D4600F12406102A31D041F6F67743F2BE
:1010B0006008112A5ED0122A27D1207910B130465B
:1010C00002F045FE216894F8240081F8340021687C
:1010D00040F206304884A068C1194046B1FBF0F2E6
:1010E000A160216811F8213F1A440A70A168B1FB80
:1010F000F8F208FB1210A0602168888C0A308884FE
:10110000216811F8200F401C0870BDE8F08120799B
:1011100078B104F1140104F10C0002F018FE294624
:10112000304602F014FE04F1440104F13C0002F0E8
:101130000EFE2168A08908832068A289C18A114413
:1011400089B2C1822068A1F57F42FF3A01D1002116
:10115000C182216894F8240081F83400206894F852
:101160003C10027D61F3060202752168487D401C37
:101170004875CAE7207910B1304602F0E8FD2168D1
:1011800094F8240081F834002068818B01F2063144
:101190008183A068C1194046B1FBF0F2A1602168CB
:1011A000CB7E1A44CA76A168B1FBF8F208FB121094
:1011B000A0602068C18B0A31C1832168887E401CF1
:1011C0008876A2E710B504468378827A4178007861
:1011D000C2DF002813D123796279E1882078D3DF38
:1011E00000280CD1E1782078CDDF002807D1A17844
:1011F000C90704D12189002901D02078D1DF10BD91
:1012000070B50E460546FF220221FFF761F93178DD
:10121000A9707188E970080A2871B1886971090A92
:10122000A9713046BDE8704002F0F8BAFF220270A2
:101230000A7842704A7882704A68C270130A037151
:10124000130C4371120E8271084602F041BB00007C
:1012500010B5164990F82C200B789A4224D1497881
:1012600009B1402920D190F82D0007280ED005DCC7
:10127000012810D0022817D10B200DE0082803D038
:10128000802811D1072007E0012005E0BDE81040CB
:10129000002002F013B8002000F0DCFA002803D090
:1012A000BDE8104000F0B6B810BD000028000020D6
:1012B0001CB50446694602F0C9FC20786A4608213C
:1012C000C7DF002801D000F0A5F81CBD0149CCDF24
:1012D000704700001800002006490020497819B125
:1012E000102903D0402904D1012000E0022000F0A1
:1012F000B1BA704728000020024A107051700020D7
:1013000000F0A8BA2800002070B50024064D06E0C1
:101310006868012110F8340001F062F8641C287834
:101320008442F5D3002070BD2C000020F8B515468E
:101330000C460646052A01D20720F8BD01F036F911
:1013400018B901F005F90028F7D1104900204E60C6
:101350000C70C1E902500E4D08610DE006EBC400AF
:101360006968009181788DF801100078094A694612
:1013700001F088F80028E0D1641EE4B2EED2BDE8A6
:10138000F840054A0021024800F050B82C00002027
:1013900060450000991D0000F91C000001F078FE76
:1013A00001F074FC0028FBD1104C0121208801EBD6
:1013B00000400FA101F0BCFD10480068C00700D03C
:1013C00000BE2088022101EB00400DA101F0B0FD1C
:1013D000BFF34F8F0948E43801680D4A01F4E0611A
:1013E00011430160BFF34F8F00BFFDE76C01002088
:1013F000466174616C206572726F7200F0ED00E0FE
:1014000053797374656D2072657365740000000014
:101410000400FA050EB500210091CDE901106A46DD
:1014200044F20100FFF7BAFF0EBD0000074B9B78A6
:1014300023B12AB120B10068037C1BB1082070479A
:101440000720704741744261002070472C03002040
:1014500070B502F069FB104800240B210470447041
:101460000E4D817014206C602C706C70FFF770F959
:1014700007211420FFF78DF91420FFF774F90848AD
:10148000046007211120FFF784F90548001F006858
:10149000A860002070BD00002C0300204000002048
:1014A000081501402DE9FC47DFF8789099F80230E3
:1014B00073B368B3052902D20720BDE8FC874369EE
:1014C00033B3437C012B25D00027044600258846F2
:1014D00016468DF80050684600F038F801A802F072
:1014E000AFFFC8B1012101700F4944600968C0E92C
:1014F0000218C0E904769DF8040089F801009DF8FF
:10150000000000F047F81420FFF738F92846D4E728
:101510000820D2E70F46D8E704259DF8000000F028
:1015200039F8F3E72C0300200415014006498978B7
:1015300039B130B1416921B100210174022102F0B9
:1015400073BD0820704700002C03002030B5EFF376
:10155000108172B60D4A9468012324B103700029EA
:1015600000D162B630BD93604FF0E023D3F88051D4
:10157000074C25401560C3F88041D3F8844154607E
:101580005A17C3F8842100220270E8E738040020CB
:10159000FC06FFBD0B498A68002A11D000280FD134
:1015A000EFF3108072B60B684FF0E022C2F8003102
:1015B0004B68C2F8043100228A60002800D162B66C
:1015C00070470000380400202DE9F0410646086805
:1015D0000C46411C4FF0A0474FF0010506D005FA1C
:1015E00000F1C7F80815206801F030FA6068411C66
:1015F00002D0002101F021FA3079204901EB40109E
:10160000A169007F00283068C0F8241525D0607DCE
:10161000227D31681043C1F86C05D4E900123068AE
:10162000C0F80C15C0F8142524E0A068411C02D0B5
:10163000002101F002FAE068411C05D08540C7F89E
:101640000855E06801F002FAD4E902123068C0F8E7
:101650000825C0F81015BDE8F081607D217D326855
:101660000843C2F86C05D4E900123068C0F81425AC
:10167000C0F80C15207D0128D7D0ECE7EC02002043
:1016800007490B5C4FF0A041D1F804250120984098
:1016900020EA0203C1F808351040C1F80C05704774
:1016A000104500000249085C012101F0EAB9000080
:1016B000104500000249085C002101F0E2B9000079
:1016C000104500000649095C4FF0A040D0F8040521
:1016D000C84010F0010000D0012080F001007047E8
:1016E000104500007CB50024084E25460122305DDF
:1016F000009500231146019501F060F9641C042C4B
:10170000F4D3BDE87C4000F003B8000010450000B1
:1017100010B500242046FFF7C5FF641C042CF9D344
:1017200010BD10B500242046FFF7C4FF641C042C34
:10173000F9D310BD10B50246064B4FF0FF30002123
:101740005C5C944201D1084610BD491C0429F7D3C2
:1017500010BD0000144500002DE9F0470D468146FC
:10176000FFF7E8FF0446042836D2DFF874801B48F0
:101770001C4EA8F10C0725B3012D0ED0022D2BD144
:1017800004EB440030444578002D25D0B968002989
:1017900022D02846BDE8F047084704EB4401755CB9
:1017A0000E44717849B10E4A4FF40041093A8068FD
:1017B000FFF778FE08B987F80390B17808F80410AD
:1017C000E2E78068FFF7B2FE04EB4401314418F809
:1017D00004008D78A842D7D0BDE8F08718450000F6
:1017E000140000206802002070B50023042810D2E5
:1017F0000D4D00EB4004012A02D101290CD000223A
:10180000094E00EB4000304461B1012906D00229A5
:1018100006D00723184670BD0E30C2B22A55F9E72C
:101820004270F7E78270F5E7680200200E2806D0C4
:101830000F2808D010280AD10548FFF783B90448BB
:101840003830FFF7D9BB02483830FFF7BBBB7047D1
:101850009C010020044A014600201279D20702D0E0
:10186000084600F04DB870470800002070B50646E5
:101870001E480024C0E90161B00720D500250122DF
:1018800011462846FFF7B0FF6D1C0446042D02D216
:10189000002CF4D013E094B940F26662042114489D
:1018A000FFF744FD04000AD1FFF72EFD040006D126
:1018B0000F48104A0021001FFFF7B8FD0446F0074B
:1018C00001D0FFF70FFF74B909480B4A00210C380B
:1018D000FFF7ACFD040006D10548084A012108388D
:1018E000FFF7A4FD0446204670BD0000080000205C
:1018F00024450000511B0000411F0000EF0A0000BA
:101900002DE9F05F6A4C054600266078B34618B1B1
:1019100084F801B000F0FCFA664F4FF47A694FF496
:10192000C87A4FF00108182D62D2DFE805F0AC0C40
:101930000C31404D62676B746B74BE7D7D7D7D7D27
:10194000ACAFB2B5BEBE0020FFF7BCFE00284FF022
:10195000000008D0FFF7A6FE022D02D14FF4E1608F
:1019600008E0484606E0FFF7A5FE022D01D1C82099
:1019700000E05046410CC0034FF4FA72801841F168
:101980000001257052000023FEF75AFD01462AE0AF
:101990000020FFF797FE00284FF0000004D0FFF76B
:1019A00081FE4FF44870E5E7FFF784FEDFE7002093
:1019B000FFF788FE00284FF0000002D0FFF772FE0C
:1019C000CFE7FFF777FED4E70020FFF77BFE002884
:1019D0004FF0000002D0FFF765FE01E0FFF76AFE5E
:1019E000257041F69A1100223868FFF75BFD064624
:1019F00046E00020FFF744FE257008E0002051E09B
:101A000025703DE084F801800120FFF739FE0022B7
:101A100040F6CD41E8E784F801800120FFF730FE71
:101A200000224FF48041DFE77868FFF77FFD06462C
:101A3000D5F1110000D02EB10220FFF733FE84F85B
:101A400002B01DE0012816D980B2C8214843C11751
:101A5000C90341EA5041C0034FF4FA72801841F1C2
:101A6000000152000023FEF7EBFC014600227868DB
:101A7000FFF718FD06460220FFF71CFE84F80280DF
:101A80003046BDE8F09F00F043FAB9E700F040FAB5
:101A9000B4E700F03DFA04E000F03AFA0020FFF766
:101AA00009FE0120FFF706FEAAE7FFF73AFEA7E7C7
:101AB0000800002018450000F8B5871C00208DF8AC
:101AC00000000E4601256846FFF740FD124C2068D5
:101AD0003060D4E90001401AA168091ABE1C06E072
:101AE00000F0B4FAD4E90001401AA168091A491CAF
:101AF0008E42F5D8A1682068084004EB8000C168D8
:101B000041F00301C1602068384420609DF8000066
:101B1000FFF740FD2846F8BD5005002030B482682C
:101B20000468531C8360A154D0E901128A4202D395
:101B300030BC00F04ABE30BC70470000034803C808
:101B4000814201D1012070470020704750050020DC
:101B500000780221FFF700BE027806480321FF2A21
:101B6000008801EB004002D003A101F0E5B90EA10D
:101B700001F0DEB9D0000020696E7374616E74618B
:101B80006E656F757320636164656E63653A2020CE
:101B900020202020202020202020202020257520EB
:101BA00072706D0D0A0A0000696E7374616E746163
:101BB0006E656F757320636164656E63653A20209E
:101BC000202020202020202020202020202D2D20FB
:101BD00072706D0D0A0A000005494FF0FF320828A7
:101BE00041F8202002D3084480F8482070470000C4
:101BF00094020020F0B54FF0FF3512B10023082603
:101C000001E008230C260C4C05E000BF54F82370BB
:101C10007F1C04D05B1CB342F8D32846F0BD2618C5
:101C20005DB286F8305044F82310002AF5D1E1184F
:101C300081F84800F1E700009402002002490844BE
:101C400090F9300070470000940200202DE9F05F09
:101C500026484168F1B3DFF898B00E688146DBF89A
:101C6000004087688078E11B21F07F45ED1CB0B90A
:101C7000DFF880804FF48030C8F84403C8F80403CC
:101C80001120FEF765FD1120FEF76DFD4FF0010AF2
:101C9000C8F800A02F2000F033FB89F802A0B5425D
:101CA00000D23546124BE8193C3320F07F401860D3
:101CB000DBF800105A46091B21F07F41001B20F081
:101CC0007F40C91C81420FD9106818602F2000F096
:101CD00017FB00E004E0BDE8F05F1120FEF74EBD09
:101CE000BDE8F05F01F020BFBDE8F09F400000209C
:101CF00004150140001001402DE9F04100260125A6
:101D0000144C22E06068226900EBC607387805FAB7
:101D100000F1114217D08A43226100F00FFC024605
:101D20003878E36805FA00F1194002FA00F39942A5
:101D300009D17978012901D0012100E00021514029
:101D40007A6802B19047761CF6B220788642D9D3E1
:101D5000BDE8F0812C0000200E4910B50A784C78BF
:101D60000023A24212D0521CD2B20A70022A00D121
:101D70000B70084A0B780C3252F8232002608868F6
:101D8000104420F07F408860012010BD03600020D7
:101D900010BD0000400000202DE9F041124E074622
:101DA0000125BD403068FFF7C1FB00280DD10F4C65
:101DB0002069284207D1384600F0C0FB0028E068BF
:101DC00005D0284304E0A8432061BDE8F081A84382
:101DD000E060206928432061A1683068BDE8F041D7
:101DE0000022FFF75FBB0000604500002C000020D0
:101DF0002DE9FC5F0E008346DDE90C47C6F10000CB
:101E000098469246814600D40846012503E000BF6B
:101E100090FBFAF06D1C5045FADAA84500D945460A
:101E200024B1002E01DB780700D5641EB80702D567
:101E3000B8F1000F0AD0F80708D13CB1A54205D28D
:101E400020215846641EFFF769FEF6E7002E02DAED
:101E50004E462D2102E0780703D52B215846FFF787
:101E60005DFE07F0030002280BD1B8F1000F08D186
:101E70003CB1A54205D230215846641EFFF74EFE04
:101E8000F6E7CDE90047434652463146584602F050
:101E90007DFABDE8FC9F000070B50E46044600794F
:101EA00018494FF4A27501EB4010017F2068A1B1E1
:101EB0004FF4887101F011FB4FF49071206801F02C
:101EC0000CFB4FF49271206801F007FB2946206853
:101ED00001F003FB0C49206809E04FF48E7101F01A
:101EE000EBFA2946206801F0E7FA08492068C0F8B3
:101EF0000413206800F071FA3146BDE8704000F02C
:101F000050BA0000EC020020100302008000020022
:101F10000A4810B5807860B1002401E0022C06D098
:101F20002046FFF7BFFB641C042CF7D310BD03242D
:101F3000F6E7BDE81040FFF7EBBB0000080000200B
:101F400003480179C90702D00078FFF7D9BC704770
:101F5000080000202DE9F047394E002780463D4615
:101F6000DFF8E090D6F804A057E003D00446D0F89C
:101F70001C8035E099F8002002EB4201521CD2B2DD
:101F800089F8002009EBC10199F80230091D9A4235
:101F900001D189F8005048680A780446012A12D015
:101FA000022A02D0032A3BD108E002F00DF800B16A
:101FB0000127257434E00574C06900E070680028CA
:101FC000F9D170602CE0207C50BB88686060C868E4
:101FD000A0600869E0604869A061F07800B16560C0
:101FE0006268B168184B501A20F07F40984202D2C4
:101FF000A168084406E0881AA16820F07F40814269
:1020000002D9081A206000E0256065600120A56003
:1020100020742046E56101F0B9FFB8F10000A4D1B9
:1020200099F8001099F801008142A3D117B971689D
:10203000514502D00120BDE8F0870020FBE70000F9
:10204000400000202C030020FFFF7F0070B588B007
:10205000214800F0F3F82048001F064600F0EEF893
:102060001E4DD5E9014105E0C0F3891202EB905005
:10207000641C044404EA010005EB8000C068820788
:10208000F2D000200DF1080204EA010305EB8303FE
:10209000641CDB6842F82030401C0228F4D302980C
:1020A00000F00300012808D002280AD10298032179
:1020B00001EB905004EB900403E00298C0F383100E
:1020C00004443046002101AAFEF773F9002800D02D
:1020D0006C6008B070BD0000680900205005002049
:1020E00010B50020FFF7B6FB08B1FFF793F9012008
:1020F00010BD02F0BDF901F031F908B1FFF78AF91E
:1021000001F0FCF808B1FFF785F90020FFF7DEF8D1
:1021100008B1FFF77FF901F079FE01F0D5FC00F07E
:10212000B5FD0028FBD101F0A7F8F8E72DE9F0474D
:10213000C7880446181D16468946B0FBF7F1B0FB68
:10214000F7F207FB12009A193A44D21CB2FBF7F2DD
:10215000DDF820A001E02468491E0029FBD13D1ACA
:102160008846B54216D818E0BAF1000F05D02118FC
:1021700009EB08002A46091D04E0204409EB080188
:102180002A46001DFEF792F900202468761BA84419
:10219000B74201D9354600E03D46002EE4D1BDE806
:1021A000F087000030B5024669B100F059FF002108
:1021B000084C0BE001EB410304EB830315685B88DB
:1021C000AB4202D11160002030BD491C8142F1D3E5
:1021D000052030BDC400002010B541680246002330
:1021E000887802280BD0507BFF2802D00878782806
:1021F00008D00A78782A0AD351200B7010BD01202C
:102200008B7010BD0120122313730A780DE0772A1A
:102210000ED0487870B10523B2FBF3F403FB14230E
:10222000022B07D0012807D01220521C0A7010BDC3
:102230005020FAE71020F8E71120F6E708B5012151
:102240006A46FEF7A9F8009808BD38B5044600258F
:102250008DF800506846FFF779F9216862680868D0
:1022600090420ED9401E08600178238AE26801FB83
:102270000325227A2168101AC0B20A79824200D25C
:1022800008719DF80000FFF785F9284638BD38B57C
:10229000054600208DF800000C466846FFF756F909
:1022A000E868298A201AB0FBF1F12A681068431CFB
:1022B000136001709DF80000FFF76CF938BD10B590
:1022C00030B1017A42680368891AC9B21A6006E01F
:1022D0000E2010BD03681A68541C1C601170491E42
:1022E000C9B2F7D2006800210171084610BDC208CA
:1022F00000F007030120895C984008407047000007
:1023000000283ED01F49204A096800BF00BF00BF17
:1023100000BF00BF00BF00BF00BF91422FD000BF71
:1023200000BF00BF00BF00BF00BF00BF00BF00BFB5
:1023300000BF00BF00BF00BF00BF00BF00BF00BFA5
:1023400000BF00BF00BF00BF00BF00BF00BF00BF95
:1023500000BF00BF00BF00BF00BF00BF00BF00BF85
:1023600000BF00BF00BF00BF00BF00BF00BF00BF75
:1023700000BF00BF00BF00BF00BF00BF00BF0138EB
:10238000C3D17047C00000200024F40000F01F02F9
:10239000012191404009800000F1E020C0F8801147
:1023A00070474907090E002806DA00F00F0202F113
:1023B000E02282F8141D03E000F1E02282F800140C
:1023C00000F01F02012191404009800000F1E0204F
:1023D000C0F88012C0F800117047000B40B270477F
:1023E0002DE9F0418846054601F0CEFA234E00283B
:1023F00028461AD0FFF722FC304490F848008009A4
:10240000032802D001280ED007E04FF0A040D0F8FA
:102410001005E84010F0010F05D003212846BDE863
:10242000F04100F01DBB0221F8E701F0B9FA0028E5
:1024300022D02846FFF702FC04464FF4807000EBE0
:1024400084000F4F81B207EB8400D0F8102542F0D2
:102450000102C0F81025084600F032FBB8F1000F69
:102460000AD02846FFF7EAFB56F82000002803D0E0
:102470000120A040C7F80403BDE8F08194020020C9
:10248000006000402DE9FC41DFF8A480044608EB21
:102490000400002790F930001346C0170E46401C78
:1024A00001D0082741E0F27819462046FFF7A2FB49
:1024B0000546401C38D0B07850B14FF0A04000EB3A
:1024C0008400D0F8001721F00201C0F8001707E0DF
:1024D00000217378204600910A46019100F080FAAD
:1024E000F078C0B11348317800EB8500D0F81025A2
:1024F000114B1A40C0F810254FF4F8524FF44033F6
:1025000002EA042203EA01410A43D0F810150A4303
:10251000C0F8102509E008EB0500327810F8481FD4
:1025200041EA8211017000E004273846BDE8FC81D1
:102530009402002000600040FFE0FCFF4FF0A0414B
:10254000D1F81015C14011F0010000D001207047F2
:1025500070B5144D95F8540008B1082070BD0020E6
:10256000411E2A18401CC0B282F830102028F8D32F
:1025700000242046FFF730FB641CE4B20C2CF8D397
:1025800007210620FFF70DFF4FF4BE7000F098FA08
:1025900005494FF00040C1F80403012085F85400BC
:1025A000002070BD9402002000600040034890F8B5
:1025B0005400002800D00120704700009402002041
:1025C0000121B1EB507F01D10120704700207047FD
:1025D0002DE9F04105460079164F904607EB40146F
:1025E0000E46E07E10B10820BDE8F081707F2077B4
:1025F0002846FEF7E9FF5FEA080060603169216064
:1026000003D0317F2846FFF747FC287907EB4010BD
:10261000007F0028286801D0082100E00421C0F8CC
:1026200000150020E0752076A0750121E176A076E6
:10263000DAE70000EC0200202DE9F04705460079BA
:102640003F4E904606EB40140F46207F18B10846D7
:10265000FFF7B6FF30B1284600F074F820B1112022
:10266000BDE8F0871020FBE784F81680A7600027FC
:10267000A78228794FF0010806EB40143E46207FE0
:102680000028286825D04FF49079494600F025FFAE
:102690004FF4AC7A5146286800F01FFF2868A17DEE
:1026A000A268C0F84425C0F848152868C0F808801A
:1026B0006068F0B94946286800F00AFF8046514634
:1026C000286800F005FF58EA0001F3D058BBA77551
:1026D0000FE04FF48E7A514600F0EEFE2868C0F805
:1026E00008802146286801F0FDFC61684FF4807085
:1026F00089B13046B4E75146286800F0D8FE10B9D9
:10270000A08A4845F7D1A08A484505D021462868C7
:1027100001F0E8FC00E08146A08AA17D8842EAD36E
:10272000A08A484501D10F26D1E75146286800F01C
:10273000BEFE0028F9D02868C0F80C80C7E700006A
:10274000EC0200200079044901EB4010807D002854
:1027500000D0012070470000EC02002070B5044654
:1027600000791149002601EB401520682A7FC0F846
:102770000065686888B1207901EB4010007F00286F
:10278000206801D0094901E008498C39C0F80813D4
:102790002068FFF722FEFFF7F9FD204601F00CF953
:1027A000EE766E6070BD0000EC02002010030200A7
:1027B0000FB408B50399002904D004AA00926A4610
:1027C00000F00FF801B05DF814FB10B58268044604
:1027D000002A05D0D4E90403216898470020A060AE
:1027E00010BD2DE9FC4791460C00804676D014F8C8
:1027F000011B39B125290ED04046FFF78FF920780B
:102800000028F4D198F80C00002867D04046BDE8B5
:10281000FC47FFF7DABF0020012221782B291BD0CB
:102820002D2902D0302908D102E040F0010001E05A
:1028300040F00200641C002AEFD100252A290ED0A6
:102840002178A1F130020A2A11D205EB850201EBB1
:102850004205641C303DF1E740F00400EAE7D9F896
:1028600000100B1DC9F800300968641C0D44217864
:1028700000232E290BD114F8011FA1F130020A2ADE
:1028800005D203EB830201EB4203303BF3E76C29F3
:102890000DD068290BD0692921D00BDC252918D04F
:1028A000582931D063290ED0642915D117E014F8C6
:1028B000011FECE7702969D0732932D075291BD02C
:1028C000782909D120E0D9F80000011DC9F80010CD
:1028D00001784046FFF722F9641C90E76CE0D9F8D4
:1028E00000100A1DC9F800200968CDE900500A222D
:1028F0004046FFF77DFAEFE7D9F800100A1DC9F846
:10290000002009680A2206E0D9F800100A1DC9F85B
:10291000002009681022CDE90050404601F036FD44
:10292000DAE7D9F8001000270A1DC9F800200E6860
:10293000C00705D112E04046761C7F1CFFF7EEF879
:1029400031780029F7D104E0202140466D1EFFF7C1
:10295000E5F8BD42C0D9002DF6D1BDE74EB13046F5
:10296000FDF7C8FD074604E0202140466D1EFFF735
:10297000D5F8BD4206D9002DF6D103E04046761CBD
:10298000FFF7CCF831780029F8D1A5E7D9F8000095
:10299000011DC9F80010056830214046FFF7BEF858
:1029A00078214046FFF7BAF808200021CDE9000160
:1029B000034610222946B0E7BDE8FC8770B541EA1E
:1029C0004201DDE904564FF0A04441EA830141EAA7
:1029D000052104EB800041EA0641C0F8001770BDF4
:1029E00070B541EA4201DDE904564FF0A04441EAE6
:1029F000830141EA052104EB800041EA0641C0F869
:102A0000001770BD70B541EA4201DDE904564FF090
:102A1000A04441EA830141EA052104EB800041EA38
:102A20000641C0F8001770BD1CB5002100910B468F
:102A300001220191FFF7E6FF1CBD1CB500220B46E9
:102A4000009211460192FFF7DDFF1CBD1CB500216D
:102A500000910B46012201911146FFF7D3FF1CBDE7
:102A60004FF0A04202EB8000D0F8002722F4403261
:102A7000C0F80027D0F8002742EA0141C0F800174B
:102A8000704701224FF0A043824011B1C3F80825DE
:102A90007047C3F80C25704718B5084B6C460144C5
:102AA0001B68009306E000BF54F82030D3F81035BF
:102AB000401C08C28142F7D818BD00005C450000E8
:102AC000034908B50844002101600068009008BD72
:102AD0000060004002494058012800D000207047A3
:102AE0000060004030B5124B01460020D3F810447E
:102AF000224609E0157A854205D1401C0A28F7DBF9
:102B00004FF0FF3030BD5268002AF3D1421CF9D09B
:102B10000872D3F810242AB152684A60D3F81024FE
:102B2000516030BD0022C3F810144A6030BD00006F
:102B300050050020F0B595B01C4615460F460846D6
:102B40001A9E00F05DFB182109A8FDF7C8FC0E963F
:102B5000CDE909540023082203A9384600F06AFB96
:102B6000059806900498ADF81C0000208DF8200010
:102B70000398082600F00300012802D002281DD087
:102B80003CE003983346850AC0F3C2008DF81E006E
:102B900003980FA9C0F380008DF81F000398C0F3BD
:102BA0008314A200384600F045FB09A8009006AB4C
:102BB00022460FA9284600F07FFA1FE00398840DF3
:102BC000C0F3C2008DF81E000398C0F380008DF89A
:102BD0001F00082C01D2254600E0082533462A466E
:102BE0000FA9384600F026FB2E44641B09AB06AA49
:102BF00029460FA800F0B0F9002CEAD1384600F0C1
:102C000008FB15B0F0BD7047012001F08FBA00003D
:102C100010B50448FFF7A2FDBDE81040002001F008
:102C200085BA00006000002008B5034A00924023E6
:102C3000024AFFF77FFF08BD693D000050040020F5
:102C40000A4A012902EBC00007D0022907D0032954
:102C500007D0042907D000207047022070470420C5
:102C60007047007970474079704700008448000041
:102C700010B5FFF7C9FF04210348FFF733FF0249EE
:102C80000120487210BD0000680000202DE9F04FBF
:102C90008DB0FEF753FF18B100200DB0BDE8F08FE6
:102CA00074480021C0F81814BFF34F8FD0E90146D3
:102CB00004EA060100EB81014FF000090AE000BFC1
:102CC000C1F3891202EB9151641C0C4404EA060121
:102CD00000EB8101C9688A07F2D0002103AA80466F
:102CE00004EA060008EB8000641CC06842F821007A
:102CF000491C43460229F3D3039800F0030002283D
:102D000006D0012803984FD0C04380077ED0ACE0A6
:102D100003985022810D8A46B2EB905F00D8502173
:102D20000D4665F39F5003900831534800F01FFA99
:102D300007006CD000F064FA4B46082203A938461D
:102D400000F07EFA04EA0601701A8000001D09F105
:102D5000080B854221D9474E0C3630B1C2B208EB80
:102D60008101281A91460C3104E03146EAB200266E
:102D700091463046C5B25B46384600F061FA0BEB2F
:102D800009032EB12A4631464FEA070000F058FAEF
:102D90000AF1030004EB90043BE008EB81015B4681
:102DA0002A4638460C31F1E7C0F38310062800D3D9
:102DB0000620039960F38911C1F38310801C0391ED
:102DC00081002D4800F0D3F907004ED000F018FA2A
:102DD0004B46082203A9384600F032FA09F10809E7
:102DE00000250DE004EA060008EB80014B460422B2
:102DF00038460C31641C00F023FA09F104096D1CFB
:102E00000398C0F38310A842ECD801E00BE02CE05B
:102E10005FB3D8F81054D8F81804464690B1384635
:102E200000F0F7F921E0D3F8180400283FF435AF9B
:102E30001BE0687A012804D1296828460A683946C7
:102E400090476D68002DF4D1384600F0E2F900207B
:102E50008DF800006846FEF779FBD6F8180400B933
:102E600074609DF80000FEF795FBFEF767FE80F0AA
:102E7000010012E750050020C84500002DE9F84F79
:102E8000DFF8A89080468A46D01C1646800869461E
:102E9000D9F80870FEF710FE80B3009DAC1C0094BA
:102EA000D9F8081004EA0700091A8C00241DA6426C
:102EB00009EB800002D8324651460AE022465146CC
:102EC0000C30FDF7F3FA301B86B218480AEB040108
:102ED00032460C30FDF7EAFA681C384009EB8000F6
:102EE0004FEA18423D4009EB8501C2605FEAC860C5
:102EF00051F80C0F03D540F0040002E00CE020F084
:102F0000040068F3C5004FF6C072904366F39F500B
:102F100020F00300801C086099F81C0402E000BF48
:102F2000FFF7B4FE0028FBD1BDE8F88F5005002064
:102F300000231A4600F0A2BF08B5012300926A469A
:102F400000F09CFF08BD1CB5CDE9002302236A46B2
:102F500000F094FF1CBD00002DE9F0470E468046AE
:102F60001C46924608293ED894F80C900020207305
:102F70001946104600F07AFD0025B54206D218F831
:102F800005201AA12046FFF713FC03E019A12046F3
:102F9000FFF70EFC6D1C082DEFD317A12046FFF79D
:102FA00007FC0025B54210D218F80570FDF77AFA33
:102FB0000068C05D10F03E0F01D03A4600E02E22BE
:102FC0000EA12046FFF7F4FB03E00DA12046FFF71A
:102FD000EFFB6D1C082DE5D301222146504600F081
:102FE00027FD84F80C90BDE8F087000020253032E2
:102FF00078000000202020007C00000025630000F5
:1030000020000000114810B5FF21816000210160FF
:103010004160C0F81814C0F8141480F81C140C484F
:1030200000F0F5F800280FD10A480B490B4B401A65
:10303000C108002005E000BF00EB400223F8220099
:10304000401C8842F8D3002010BD0000500500202D
:10305000C84500001449000084480000C400002056
:1030600002480349401AC008704700001449000094
:103070008448000013B56846FFF794F808B10020B3
:103080001CBD0248009950F831001CBD8448000066
:1030900070B508480125D0F8104480F81C5405E0AC
:1030A000657221682046496888476468002CF7D11A
:1030B00070BD0000500500202DE9FF4781460C9DA2
:1030C00000200C462F7B2873984616462946184642
:1030D00000F0CCFC072E42D2DFE806F004090F1600
:1030E0001F2A360049462846FFF762FB37E049466B
:1030F00028462268FFF75CFB31E0D4E9002349460B
:103100002846FFF755FB2AE0A0680090D4E9002389
:1031100049462846FFF74CFB21E0D4E90201CDE9FE
:103120000001D4E9002349462846FFF741FB16E099
:1031300004F1080007C88DE80700D4E900234946D8
:103140002846FFF735FB0AE004F108000FC88DE8B8
:103150000F00D4E9002349462846FFF729FB002247
:103160002946404600F064FC2F73BDE8FF872DE937
:10317000F041058A80462D1F4819C01CB0FBF5F0B0
:10318000C6B24046FFF761F8041E19D00020207136
:1031900001206071E58000272546761EC4F8008076
:1031A0000BE04046FFF751F860B16179491C61714D
:1031B000286005467F1CC0F80080B742F1D3204646
:1031C000BDE8F081204600F002F80020F8E72DE984
:1031D000F041457901466B1E002201E00968521C4E
:1031E0009A42FBD30F680146002605E038460C687A
:1031F000FFF74DF82146761CAE42F7D3BDE8F081CB
:1032000008B501216A46001DFDF751F808BDFFF71A
:1032100056B838B50446001D01216A46FDF754F83A
:10322000009810F0FF0F04D12046BDE83840FFF7AA
:10323000CEBF38BD38B501240094FEF777FF38BD06
:1032400038B500240094FEF771FF38BD70470000C8
:10325000064910B500204870091D0860BFF35F8F54
:103260000349044800F0FCF8002010BD5400002081
:10327000904500004404002008B500208DF80000AF
:103280006846FEF763F9F1EE100A20F09F00E1EEC8
:10329000100ABFF35F8F08494020C1F880029DF8F3
:1032A0000000FEF777F900F0B7F808B13EDF08BD7F
:1032B00020BF40BF20BF08BD04E000E0F8B50446D1
:1032C0000D4801216A46FDF70DF8BFF35F8F002519
:1032D00000280AD10121084E042C09D0301F427861
:1032E00022B100BFBFF35F8F3560F8BD047041703D
:1032F00000F04EFDF6E70000580000200EB5034A2E
:1033000007CA8DE807006846FADF0EBD5046000088
:1033100030B58FB00DF12D040BAD6A46214628461D
:10332000C1DF30B1052814D00FB0BDE83040FEF742
:1033300071B809490CA800F093F806E0D0E9003113
:10334000684698470CA800F0A2F80E980028E4D030
:10335000F4E70FB030BD00004446000038B5184C0B
:10336000207808B1082038BD0125A570002000F0A4
:103370003FFC112821D0002000F052FC114812A27D
:103380001B4900680090684610DF0028EBD12570CB
:10339000A07060700721162000F009FC08B1FEF74C
:1033A00039F80721152000F002FC08B1FEF732F8C9
:1033B00000F03CFD012000F033FC002038BD00008F
:1033C000BC000020EC450000333833312D3532315C
:1033D000642D376466392D323464382D6566663362
:1033E0002D343637622D323235662D61303065002E
:1033F0009D1300000EB50749684600F031F805E05E
:10340000D0E900108847684600F041F8029800288B
:10341000F6D10EBD08460000014800787047000054
:10342000BC0000201FB5684648DF30B1052814D025
:1034300004B0BDE81040FDF7EDBF084901A800F059
:103440000FF806E0D0E900210098904701A800F0AD
:103450001EF803980028E6D0F4E71FBD6C46000074
:10346000016009684160AFF3008010B5D0E9002128
:103470005368994201D1002104E0D1E90034A3420C
:1034800002D01946816010BD08314160F0E78168C3
:1034900000290BD0026892680A44826041684B6838
:1034A0009A4203D108314160FFF7DFBF70474058AF
:1034B000002800D00120704708B500224250405833
:1034C000009008BDD0F80403084000D001207047E8
:1034D0004058002800D00120704708B50022425013
:1034E0004058009008BD000070B5164E0546427861
:1034F0003088032404EB004013A1FFF71DFD28785A
:10350000FF2808D000F07F02308819A104EB0040AA
:10351000FFF712FD05E0308820A104EB0040FFF723
:1035200007FD30886A8804EB004026A1FFF704FD00
:103530003088AA8804EB0040BDE870402CA1FFF75A
:10354000FBBC0000E80000206576656E7420636FA8
:10355000756E743A2020202020202020202020205A
:103560002020202020202020202020202575000041
:10357000706564616C20706F7765723A202020203E
:10358000202020202020202020202020202020203B
:10359000202020202575202525000000706564610D
:1035A0006C20706F7765723A202020202020202028
:1035B000202020202020202020202020202020200B
:1035C0002D2D0000616363756D756C6174656420F9
:1035D000706F7765723A2020202020202020202044
:1035E00020202020202020202575205700000000CA
:1035F000696E7374616E74616E656F757320706F40
:103600007765723A202020202020202020202020B2
:1036100020202020257520570000000010B504460A
:1036200006480321008801EB004005A1FFF780FC5C
:103630002046BDE81040FDF7DFBB0000F40000208D
:10364000576865656C3A000010B5044606480321CA
:10365000008801EB004005A1FFF76AFC2046BDE8A9
:103660001040FDF7C9BB0000000100204372616EED
:103670006B3A000070B52E4C064602782088032570
:1036800005EB00402BA1FFF757FC3078AF281AD08C
:103690000CDCAA284BD004DC102831D012280DD124
:1036A00019E0AB2817D0AC2808D10CE0BA282FD0ED
:1036B000BB282DD0BC282BD0BD2829D0208827A1FD
:1036C00005EB004020E02088B6F9022005EB004021
:1036D0002AA1FFF731FC707840B101280BD0FF28F8
:1036E00025D120882FA105EB00400DE0208834A1D2
:1036F00005EB004008E0208836A105EB004003E020
:10370000208838A105EB0040BDE87040FFF710BCF1
:10371000208839A105EB0040FFF70AFC208806222B
:1037200005EB0040B11CBDE87040FFF7A7BB70BDC2
:10373000DC00002043616C6962726174696F6E2005
:1037400069643A20202020202020202020202020D2
:10375000202020202020202020257500556E737504
:1037600070706F727465642063616C6962726174F9
:10377000696F6E2049440D0A0A00000047656E65B6
:1037800072616C2063616C6962726174696F6E2032
:10379000646174613A2020202020202020202020F5
:1037A000202575004175746F207A65726F206E6FE9
:1037B0007420737570706F727465640D0A0A00006E
:1037C0004175746F207A65726F206F66660D0A0A04
:1037D000000000004175746F207A65726F206F6E73
:1037E0000D0A0A004E6F7420737570706F727465E5
:1037F000640D0A0A000000004D616E756661637415
:103800007572652073706563796669633A2020205C
:1038100020202020202020202000000070B50278E9
:1038200004460C4D03260CA1288806EB0040FFF748
:1038300083FB6288288812A106EB0040FFF77CFB1F
:10384000A288288818A106EB0040BDE87040FFF769
:1038500073BB0000180100206877207265766973D9
:10386000696F6E3A20202020202020202020202058
:10387000202020202020202020202575000000006E
:103880006D616E7566616374757265722069643A04
:103890002020202020202020202020202020202028
:1038A00020202575000000006D6F64656C206E752A
:1038B0006D6265723A2020202020202020202020C8
:1038C0002020202020202020202025750D0A0A00FD
:1038D00070B5017804460D4D0326FF29288806EBB4
:1038E000004005D02378627809A1FFF72CFB03E0A4
:1038F000627811A1FFF720FB6268288818A106EB07
:103900000040BDE87040FFF717BB00002401002015
:103910007377207265766973696F6E3A2020202074
:103920002020202020202020202020202020202097
:10393000202025752E2575007377207265766973B2
:10394000696F6E3A20202020202020202020202077
:10395000202020202020202020202575000000008D
:1039600073657269616C206E756D6265723A2020B4
:103970002020202020202020202020202020202047
:10398000202025750D0A0A000449084490F93000EA
:10399000082801DB012070470020704794020020B6
:1039A0000449084490F93000082801D201207047EA
:1039B000002070479402002070B5034600791B492F
:1039C00001EB40101968027F4FF0FF30002AD1F858
:1039D0000C25D1F81465D1F80855D1F8104504D05C
:1039E000C1F80C05C1F8140503E0C1F81405C1F8CD
:1039F0000C051968C1F80805C1F81005501C02D063
:103A00001046FFF711F8701C02D03046FFF70CF893
:103A1000601C02D02046FFF707F8681C04D0284637
:103A2000BDE87040FFF700B870BD0000EC02002058
:103A300010B50C46C17949B11AB109A12046FEF76B
:103A4000B7FE2046BDE81040FEF7BFBE007A002852
:103A5000F3D0044804A102682046FEF7A9FEECE773
:103A60000D0A0000980000202573000070B5044680
:103A7000C0790D4600281CD1207A50B1A179A088C8
:103A8000FFF7DEF80B4951F820200BA12846FEF77E
:103A90008FFEA0880021FFF7EDFA03460549A079C3
:103AA000143951F820202846BDE8704003A1FEF7E4
:103AB0007FBE70BD98000020257300003C25733E3A
:103AC0002025733A200000001CB5154A1548A2F1C4
:103AD0000C01FDF747FA08B1FDF79CFC104A243AA7
:103AE000D2E90001CDE900010E480099C0F8261086
:103AF000BDF804104185D2E90412C0E90B1200217F
:103B00004173FDF741FA08B1FDF784FCFDF7E4FBD2
:103B1000002803D0BDE81C40FDF77CBC1CBD0000A4
:103B2000004500009C01002070B5012670044FF094
:103B3000E0210025C1F88001084C4010C4F848037A
:103B4000C4F8080366602F20FEF7DAFBA660044C79
:103B50002F20A560FEF7D4FBA57070BD00100140BA
:103B60004000002070B50546C87D0C4600284FF483
:103B7000847128460AD0FFF79FFCD5F81805627EAD
:103B8000E1688854607E401C607670BDFFF794FC4D
:103B9000D5F8180570BD1FB501238DF800308DF8DC
:103BA00008100192D0E90012684690471FBD70B519
:103BB0000D460446FCF77EFF70B12846FCF78CFFEB
:103BC00068B16807000E002C0CDA04F00F0101F157
:103BD000E02181F8140D09E042F2010070BD42F2CB
:103BE000020070BD04F1E02484F80004002070BDE0
:103BF0003EB5044609496846FFF732FC08E000BFBD
:103C0000D0E900212046904730B16846FFF73FFCDD
:103C100002980028F4D13EBD11203EBDF0450000C1
:103C20003EB5044608496846FFF71AFC07E000BFA6
:103C3000D0E90021204690476846FFF728FC02980B
:103C40000028F5D13EBD0000FC45000070B50546DA
:103C50000C46FEF7C1FA0246207023480321008873
:103C600001EB004021A1FFF767F9207805F1340648
:103C7000122827D00BDC012818D010281CD01128BE
:103C800030D105F11A01601CFCF7D5FF1FE0502868
:103C900022D0512826D105F12C01601CFDF7C6FA6F
:103CA00021782846AA68BDE87040104705F10C014C
:103CB000601CFDF723F8F3E705F11401601CFCF725
:103CC000ABFF04E005F12001601CFCF7BDFF3146AD
:103CD000601CFCF70FFFE3E705F12601601CFDF710
:103CE0008FFADDE770BD0000C4000020422D505760
:103CF0005220747820706167653A202575000000B5
:103D000010B503680A6889689C1A8C4202D9591A4E
:103D1000016010BD01210260017110BD10B54B683A
:103D2000026889689C1A8C4202D91144016010BD56
:103D300000210360017110BD0A7B1AB1496801605E
:103D4000002102E00968016001210171704710B58E
:103D5000044600790028204602D0FFF7DFFF01E08B
:103D6000FFF7CEFF206810BD10B5084C0020D2B27E
:103D70002070201DFEF760FC08B1FDF74BFB60785A
:103D8000002802D021780029FAD010BD5C00002064
:103D900070B5194D194C07E0016820788847002854
:103DA00029D01548FFF773FBA8680028F4D1FFF766
:103DB0006FF900BFFEF76AFF0028FBD120780328C7
:103DC0000CD002280AD0FFF727FB00B132DF0C49E4
:103DD00001200860BFF34F8F20BFFDE7BFF34F8F77
:103DE00008480168084A01F4E06111430160BFF32B
:103DF0004F8F00BFFDE770BD440400205400002039
:103E0000000500400CED00E00400FA051CB5054972
:103E10000022D1E90201CDE9000169460248FDF71F
:103E200005F91CBDDC440000D401002010B51620AB
:103E3000FCF740FE80B10F4890F800044009FCF701
:103E40004BFE60B10C4882684FF480016AB1016892
:103E500041F48001016010BD42F2010001E042F234
:103E60000200BDE81040FDF7D5BA4FF0E020C0F8E1
:103E7000001110BD16E000E0380400202DE9F843E1
:103E8000214C8846054691461F4669461846A66855
:103E9000FDF712FE70B30098811C00220AE000BFFB
:103EA00001EA060C59F8223004EB8C0C491C521C18
:103EB000CCF80C30BA42F3D30246401C304004EB3D
:103EC00080002B0CC36002EA060004EB8002E806C7
:103ED00052F80C0F02D540F0040001E020F004007D
:103EE00065F3C50067F3891068F39F2020F0030095
:103EF000401C106094F81C0402E000BFFEF7C6FEF0
:103F00000028FBD1BDE8F883500500202DE9F84FCB
:103F10001D4C00256846D4E901A6FDF71DFF0027CA
:103F200038B30023009A61681CE0D1F800C008464D
:103F3000944503D9ACEB02020A6015E0A2EB0C0237
:103F400063440760D0F80CC0C1698146BCF1000F22
:103F500008D006EB030828F07F48C0E9018CC9F8B7
:103F60001C5005460029E0D128466160FDF7F2FFAC
:103F700003E02846FDF7EEFF10B15046FDF766FE60
:103F8000E770BDE8F88F0000400000200D4B10B531
:103F9000596831B102680C68A24204D8A21A0A60BA
:103FA000C161586010BD0B4603E00B46C969121B86
:103FB00021B10C689442F8D3A41A0C600260C1616C
:103FC000D86110BD400000202DE9F041144E776803
:103FD0003D462C4603E0844204D02546E469002C8B
:103FE000F9D11BE0D4B1A5420BD1F869706040B99A
:103FF0000C49012088600021B160F0702F20FEF78D
:104000007FF92168E069E86110B10268114401603C
:104010007068874202D00120BDE8F0810020FBE7F4
:1040200040000020001001407CB5064600240D46EB
:104030008DF800406846FDF789FA01A800F000FA03
:1040400070B10570094946609DF8040048709DF8FC
:104050000000FDF79FFA1420FCF790FB20467CBD82
:1040600004249DF80000FDF795FAF7E72C030020E3
:104070002DE9F041194D6C68002C2CD01848002710
:104080000068A968B846401A20F07F462068B04210
:104090000CD82146361A0744E469087C20B181F81F
:1040A0001080886949698847002CEFD129786878A1
:1040B000814206D1401CC0B26870022801D185F847
:1040C0000180064869780C3040F82170BDE8F04165
:1040D0001420FCF753BBBDE8F08100004000002035
:1040E0000415014070B50C4605464FF48E71FFF77C
:1040F000E3F9A18AA068415CA08A401CA082C5F8AF
:104100001C1570BD1FB500228DF800208DF8081019
:10411000816801918275D0E90012684690471FBD01
:1041200001490120087070475C00002010B588B07C
:10413000044620220E496846FCF7B8F91F2000907B
:104140004FF0FF300190029003904FF0EB7006901B
:104150000CB1084A00E0002269460748FEF738FA29
:1041600008B1FDF757F90448001F447008B010BDAE
:10417000A845000021410000600000202DE9FF4714
:104180000C4605464FF40071FFF79CF901274FF4E8
:104190000178002618B34FF4927949462846FFF774
:1041A00086F9E0B149462846FFF786F9C5F8088345
:1041B000A07E00B96F6002208DF80000D5F8800461
:1041C000C5F880040390E07D8DF80800E068019058
:1041D000E6752676D4E900126846904727E0042168
:1041E0002846FFF76FF910B34FF484712846FFF7A4
:1041F0005EF9E0B121462846FFF7B4FCE07D617E20
:10420000884214D1207E38B1617EE268E075206971
:10421000E0602676667607E0A07E00B96F60C5F89C
:104220000883E675617EE2682046FFF7B4FC4FF430
:104230008E7841462846FFF73AF988B1A08AA17DD9
:10424000884204D221462846FFF74CFF08E0414649
:104250002846FFF731F9A17D11B12046FFF752FF43
:104260004FF4A27841462846FFF721F9002812D0E2
:1042700041462846FFF720F9A07E00B12F60E07D7F
:10428000002808D0E675617EE26804B02046BDE8EB
:10429000F047FFF780BCBDE8FF872DE9FF410C46E2
:1042A0004FF4927705463946FFF712F90026C0B160
:1042B00039462846FFF711F902208DF80000D5F89D
:1042C0008004C5F880040390D5F83C058DF80800FB
:1042D000E0680190E6752676D4E9001268469047BA
:1042E00024E04FF4887739462846FFF7F1F8E8B123
:1042F00039462846FFF7F1F8D5F83C05C1B2E07D14
:10430000884213D1207E60B1E268D5F8000220F027
:104310002000C5F80002207EE0752069E060267666
:1043200001E0E675E2682046FFF735FC4FF4A2771E
:1043300039462846FFF7CCF868B139462846FFF7DA
:10434000CCF8E07D38B1E675D5F83C05E268C1B23D
:104350002046FFF720FC4FF4907631462846FFF7C1
:10436000B7F800280FD031462846FFF7B6F8A07DF1
:10437000002808D0D5F84C0504B0C1B22046BDE8ED
:10438000F041FFF7BFBEBDE8FF8100002DE9F05FFF
:104390008346DDE90A4A994690460D4608460127BC
:1043A00003E000BFB0FBF8F07F1C4045FAD2B945EE
:1043B00000D94F465FEACA7012D18CB15FEA8A70A9
:1043C00002D5B9F1000F01D0202607E0302605E024
:1043D00031465846641EFDF7A1FB0CB1A742F7D346
:1043E0005FF00106B9F1010F02D9A9F1010903E05B
:1043F000B5FBF6F0404502D306FB08F6F2E7DFF81E
:104400003C9000BFB5FBF6F000FB165519F8001004
:104410005846FDF783FBB6FBF8F6002EF2D15FEAB3
:10442000CA7009D0002C07D0A74205D220215846D7
:10443000641EFDF773FBF5E7BDE8F09F68450000DB
:104440000A494A788B78521CD2B2934200D100229A
:104450000B78934201D1002070470270487800EB3E
:10446000400001EBC000001D704700002C0300203D
:1044700010B50020FEF7C6FD08B1FCF7CBFFFCF736
:10448000E7FF08B1FCF7C6FFFEF7E2FE08B1FCF754
:10449000C1FFFEF7EDFB09490320FDF7E7F908B17D
:1044A000FCF7B8FF064810210078FCF725FF00282C
:1044B00003D0BDE81040FCF7ADBF10BD2D180000C3
:1044C0009C01002070B54C080025E0FB02450A461F
:1044D000204600232946FBF7B3FF70BD7F00AAAA40
:1044E000555500009C01002000000000FFAA0000BC
:1044F0004E61BC0000100039050B0100F61F0000E2
:104500000000000000000020550B0000010B00001F
:10451000181F11140607101328020020480200205B
:104520007402002006000300591700000700030072
:104530005917000010000300591700001300030072
:10454000591700000000FF000000000000FF0000FD
:1045500000000000FFFF0000FFFFFFFF0000005011
:104560000C0300200300000030313233343536377D
:104570003839414243444546000000000000000035
:10458000144900001849000000000000000000006D
:10459000784500009045000004000000292C000030
:1045A000112C0000072C0000FFFFFFFFFFFFFFFFA3
:1045B000FFFFFFFFFFFFFFFF000000000000000003
:1045C0000000D601070100007C00002074000020DC
:1045D0007C00002090040020180000000000000073
:1045E00000000000000000000000000001000007C3
:1045F000DC450000EC450000080000001446000007
:104600002446000008000000244600003446000054
:104610000800000000000000000000000000000092
:104620000000000028490000384900000000000098
:104630000000000000000000000000001849000019
:1046400028490000344600004446000008000000ED
:104650000100200070090020800000000000000020
:104660000000000000000000000000005C460000A8
:104670006C460000080000000040404040404040C0
:104680004040414141414140404040404040404025
:1046900040404040404040404005020202020202C9
:1046A0000202020202020202022020202020202018
:1046B000202020020202020202029090909090902C
:1046C00010101010101010101010101010101010EA
:1046D000101010100202020202028888888888885E
:1046E000080808080808080808080808080808084A
:1046F0000808080802020202400000007946000093
:104700007761726E696E67006465627567000000AC
:104710001B5B313B33306D001B5B306D00000000D4
:104720001B5B313B33316D001B5B313B33326D0022
:104730001B5B313B33336D001B5B313B33346D000E
:104740001B5B313B33356D001B5B313B33366D00FA
:104750001B5B313B33376D00696E666F00000000F4
:104760006572726F72000000616E745F62707772C2
:1047700000000000616E745F627077725F636F6D3E
:104780006D6F6E00616E745F627077725F706167EB
:10479000655F3100616E745F627077725F70616730
:1047A000655F313600000000616E745F6270777281
:1047B0005F706167655F313700000000616E745F94
:1047C000627077725F706167655F3138000000006A
:1047D000616E745F627077725F706167655F746F3E
:1047E0007271756500000000616E745F636F6D6DBE
:1047F0006F6E5F706167655F38300000616E745F77
:10480000636F6D6D6F6E5F706167655F383100005B
:104810006770696F74650000756172740000000054
:10482000686172646661756C7400000062616C6C32
:104830006F6300007077725F6D676D740000000039
:10484000617070006E72665F736468006E72665F9E
:104850007364685F616E74006E72665F7364685F34
:10486000736F630038490000000000209C010000C5
:1048700064050000704900009C01002054280000DD
:10488000A40A00006847000000000300744700000D
:10489000000003008447000000000300944700006C
:1048A00000000300A847000000000300BC47000010
:1048B00000000300D047000000000300E8470000AC
:1048C00000000300FC470000000003001048000047
:1048D0000000000018480000000000002048000010
:1048E000000003002C4800000000000034480000D5
:1048F00000000000404800000000030044480000A1
:10490000000003004C48000000000300584800006D
:1049100000000300E1200000190F00009C010020AE
:1049200051120000000000001133000000000000E0
:10493000253400000000000001290239FF54200046
:1049400040031F9C4543604732473358473308476D
:104950003318473310473320473328473330473322
:10496000384733404733484783504704D990D003F2
:0400000500000201F4
:00000001FF
