:020000040000FA
:1000000008200020150200001D0200001F02000051
:100010002102000023020000250200000000000071
:1000200000000000000000000000000027020000A7
:1000300029020000000000002B0200002D02000039
:100040002F0200002F0200002F0200002F020000EC
:100050002F0200002F0200002F0200002F020000DC
:100060002F0200002F0200002F0200002F020000CC
:100070002F0200002F0200002F0200002F020000BC
:100080002F0200002F0200002F0200002F020000AC
:100090002F0200002F0200002F0200002F0200009C
:1000A0002F0200002F0200002F0200002F0200008C
:1000B0002F0200002F0200000000000000000000DE
:1000C0002F0200002F0200002F0200002F0200006C
:1000D0002F0200002F0200002F020000000000008D
:1000E0000000000000000000000000000000000010
:1000F0000000000000000000000000000000000000
:1001000000000000000000000000000000000000EF
:1001100000000000000000000000000000000000DF
:1001200000000000000000000000000000000000CF
:1001300000000000000000000000000000000000BF
:1001400000000000000000000000000000000000AF
:10015000000000000000000000000000000000009F
:10016000000000000000000000000000000000008F
:10017000000000000000000000000000000000007F
:10018000000000000000000000000000000000006F
:10019000000000000000000000000000000000005F
:1001A000000000000000000000000000000000004F
:1001B000000000000000000000000000000000003F
:1001C000000000000000000000000000000000002F
:1001D000000000000000000000000000000000001F
:1001E000000000000000000000000000000000000F
:1001F00000000000000000000000000000000000FF
:10020000DFF80CD000F018F800480047790500002E
:10021000082000200648804706480047FEE7FEE722
:10022000FEE7FEE7FEE7FEE7FEE7FEE7FEE7FEE7A6
:100230005D02000001020000064C074D06E0E06888
:1002400040F0010394E8070098471034AC42F6D31D
:10025000FFF7DAFF4806000068060000F0B5AE4878
:100260000023021D01780125101D4FF0805406293E
:100270000BD11678360708D10678C6F30316032E7D
:1002800006D0042E04D0052E02D0062907D00EE099
:10029000B4F82463A14FC6F304263E6002E016784A
:1002A000360704D10678C6F30316032E02D00629BA
:1002B00004D00FE09B4F9A4E7E670EE0167836070B
:1002C00008D10678C6F30316032E06D0042E04D0F8
:1002D000052E02D0062907D00EE0D4F84462924FD2
:1002E000C6F342363E6002E01678360704D106783F
:1002F000C6F30316032E02D0062906D011E08B4E5A
:10030000376827F0807737600EE01678360708D117
:100310000678C6F30316032E06D0042E04D0052E4D
:1003200002D006290AD011E04FF08046C6F80C3101
:10033000C6F810317C4E361F336002E0167836075F
:1003400004D10678C6F30316032E02D0062905D081
:100350000CE0754F032664373E600AE016783607D6
:1003600004D10678C6F30316032E02D006290DD059
:1003700014E06F4F05263E606D4E783635606C4E4A
:10038000083633603F263F1D3E6002E01678360790
:1003900004D10678C6F30316052E02D0062957D0DD
:1003A00062E0644E3668644F3E60624E361D3668C9
:1003B0003F1D3E605F4E083636683F1D3E605D4E15
:1003C0000C3636683F1D3E605A4E103636683F1D6B
:1003D0003E60584E143636683F1D3E60554E183606
:1003E0003668554F20373E60524E1C3636683F1DEA
:1003F0003E60504E203636683F1D3E604D4E2436DE
:1004000036683F1D3E604B4E283636683F1D3E60C5
:10041000484E2C3636683F1D3E60464E30363668B4
:10042000454F40373E60434E343636683F1D3E6090
:10043000404E383636683F1D3E603E4E3C3636688C
:100440003F1D3E603B4E403636683F1D3E6002E039
:100450001678360708D10678C6F30316032E06D0A1
:10046000042E04D0052E02D0062907D019E0D4F8B6
:100470005812324A01F04F01116002E01178090769
:100480000FD10078C0F30310032803D0042801D053
:10049000052806D12A480168C90702D06FF001017A
:1004A000016022487438016841F470010160BFF3B3
:1004B0004F8FBFF36F8F4FF01021D1F8000200284B
:1004C00003DBD1F80402002822DA1E4A15601E4818
:1004D0000468002CFCD01524C1F800420568002DEA
:1004E000FCD0C1F8044201680029FCD01360016807
:1004F0000029FCD0BFF34F8F0C48F0380168134A35
:1005000001F4E06111430160BFF34F8F00BFFDE7CD
:1005100010490F480860F0BDE00F00F04035014081
:100520000DF0ADBA00C007403C050040FCED00E016
:10053000105600400404001020C50040E40E0040A6
:100540000004004004E5014000E401400400FA0515
:100550000090D0030000002002E008C8121F08C16C
:10056000002AFAD170477047002001E001C1121F34
:10057000002AFBD1704700000E4903204FF0A04431
:10058000C1F800074FF00075C4F80C550A4F00265B
:10059000D4F8040525EA0001C4F8081500F000703D
:1005A000C4F80C05384600F009F8761C042EEFDB81
:1005B000EDE700006400005020A1070000283ED0B5
:1005C0001F49204A096800BF00BF00BF00BF00BF2D
:1005D00000BF00BF00BF91422FD000BF00BF00BFCF
:1005E00000BF00BF00BF00BF00BF00BF00BF00BF13
:1005F00000BF00BF00BF00BF00BF00BF00BF00BF03
:1006000000BF00BF00BF00BF00BF00BF00BF00BFF2
:1006100000BF00BF00BF00BF00BF00BF00BF00BFE2
:1006200000BF00BF00BF00BF00BF00BF00BF00BFD2
:1006300000BF00BF00BF00BF00BF0138C3D170477B
:10064000000000200024F4006806000000000020E4
:1006500004000000580500006C06000004000020A3
:0C06600004200000680500000090D0039A
:0400000500000201F4
:00000001FF
