:020000040000FA
:10000000B02900201D040000250400001502000096
:10001000290400002B0400002D0400000000000053
:100020000000000000000000000000002F0400009D
:10003000310400000000000033040000350400001B
:100040003704000037040000790A0000370400007C
:100050003704000037040000A10500003704000049
:1000600037040000370400003704000037040000A4
:100070003704000037040000370400003704000094
:1000800037040000B5070000370400003704000003
:10009000D907000037040000DD0700003704000026
:1000A0003704000037040000370400003704000064
:1000B00037040000370400000000000000000000CA
:1000C0003704000037040000370400003704000044
:1000D000370400003704000037040000000000006F
:1000E0000000000000000000000000000000000010
:1000F0000000000000000000000000000000000000
:1001000000000000000000000000000000000000EF
:1001100000000000000000000000000000000000DF
:1001200000000000000000000000000000000000CF
:1001300000000000000000000000000000000000BF
:1001400000000000000000000000000000000000AF
:10015000000000000000000000000000000000009F
:10016000000000000000000000000000000000008F
:10017000000000000000000000000000000000007F
:10018000000000000000000000000000000000006F
:10019000000000000000000000000000000000005F
:1001A000000000000000000000000000000000004F
:1001B000000000000000000000000000000000003F
:1001C000000000000000000000000000000000002F
:1001D000000000000000000000000000000000001F
:1001E000000000000000000000000000000000000F
:1001F00000000000000000000000000000000000FF
:10020000DFF80CD000F09CF900480047851B000087
:10021000B0290020094B1EF0040F1CBFEFF309802A
:100220001847EFF308800649064A884201D89042F1
:1002300002D88D464FF00000184700001507000057
:10024000B0290020B009002030B4044654E8000F63
:100250000D4644E80053002BF8D1156030BC7047C0
:1002600030B4044654E8000F40EA010544E8005366
:10027000002BF7D1156030BC704730B4044654E809
:10028000000F00EA010544E80053002BF7D1156088
:1002900030BC704730B4044654E8000F80EA0105D2
:1002A00044E80053002BF7D1156030BC704730B4E0
:1002B000044654E8000F00EB010544E80053002B0E
:1002C000F7D1156030BC704730B4044654E8000FD5
:1002D000A0EB010544E80053002BF7D1156030BCBA
:1002E0007047000030B4044654E8000F0D4644E85F
:1002F0000053002BF8D1156030BC704730B4044671
:1003000054E8000F40EA010544E80053002BF7D100
:10031000156030BC704730B4044654E8000F00EA62
:10032000010544E80053002BF7D1156030BC70473D
:1003300030B4044654E8000F80EA010544E8005355
:10034000002BF7D1156030BC704730B4044654E838
:10035000000F00EB010544E80053002BF7D11560B6
:1003600030BC704730B4044654E8000FA0EB0105E0
:1003700044E80053002BF7D1156030BC70470000F3
:1003800030B4044654E8000F0D4644E80053002BF7
:10039000F8D1156030BC704730B4044654E8000F03
:1003A00040EA010544E80053002BF7D1156030BC4A
:1003B000704730B4044654E8000F00EA010544E8F1
:1003C0000053002BF7D1156030BC704730B40446A1
:1003D00054E8000F80EA010544E80053002BF7D1F0
:1003E000156030BC704730B4044654E8000F00EB91
:1003F000010544E80053002BF7D1156030BC70476D
:1004000030B4044654E8000FA0EB010544E8005363
:10041000002BF7D1156030BC7047000006488047BC
:1004200006480047FEE7FEE7FEE7FEE7FEE7FEE7D9
:10043000FEE7FEE7FEE7FEE7E1070000010200003D
:100440002DE9F05F0546002092469B468846064609
:10045000814640241BE0284641464746224600F09C
:100460005FF853465A46C01A914110D311461846B8
:10047000224600F046F82D1A67EB01084F46224647
:100480000120002100F03DF817EB00094E41201E2D
:10049000A4F10104DFDC484631462A464346BDE864
:1004A000F09F000000487047F03E000040EA010362
:1004B0009B0703D009E008C9121F08C0042AFAD21A
:1004C00003E011F8013B00F8013B521EF9D27047DE
:1004D000D2B201E000F8012B491EFBD27047002286
:1004E000F6E710B513460A4604461946FFF7F0FF33
:1004F000204610BD421C10F8011B0029FBD1801AB8
:100500007047202A04DB203A00FA02F100207047ED
:100510009140C2F1200320FA03F319439040704741
:10052000202A04DB203A21FA02F00021704721FA48
:1005300002F3D040C2F120029140084319467047AF
:10054000064C074D06E0E06840F0010394E8070020
:1005500098471034AC42F6D3FFF756FE084000002F
:100560002840000030B58C1810F8012B12F00F0352
:1005700001D110F8013B120906D110F8012B03E05C
:1005800010F8015B01F8015B5B1EF9D101E001F895
:10059000013B521EFBD1A142E6D3002030BD00003A
:1005A0002DE9F04700268CB0DFF86091B0464FF49B
:1005B0008075012437460696284601F0B1FF38B110
:1005C000D9F80403204203D0284601F09FFF2643B8
:1005D0002D1D64007F1CADB2082FEDD34FF4BE7407
:1005E000204601F09DFF48B1204601F08FFF46F004
:1005F000004606AA0121002001F074FF444D16F0C8
:10060000FF0F15D00127002437420DD009EB8401DC
:10061000D1F81005D1F81015C0F3042055F82420A6
:10062000C1F3014102B190477F00641C082CEBD359
:10063000002E67DA4FF0FF30CDE9088000263446FF
:10064000281910F8507F90F9000027F0C008401CCE
:1006500044D009A9404601F070FB58B34FEA9719FE
:10066000404601F033F855F820701FB1B9F1030F7F
:1006700003D00FE0B9F1030F30D108A84FEAD80238
:1006800008F00703815C4FF0010C0CFA03FC41EA0F
:100690000C0181544FF0A04101EB8800D0F8000715
:1006A00006A9C0F3014A404601F047FB18B1BAF170
:1006B000020F03D012E0BAF1030F0FD1B9F1030F0B
:1006C00008D1BAF1020F1BD00221404601F0EEFE24
:1006D000761CF6B217B149464046B847641C042C54
:1006E000AED3002E0ED06A460121002001F0FAFEA2
:1006F00006990098884205D00690089809909DE7D1
:100700000321E2E70CB0BDE8F08700000060004084
:1007100054020020044602F091F900BF01F0DCFF12
:100720000028FBD1204600F001F80000BFF34F8FF6
:1007300005480168054A01F4E06111430160BFF317
:100740004F8F00BFFDE700000CED00E00400FA054C
:1007500000F01F02012191404009800000F1E020DB
:10076000C0F88012704700F01F020121914040093B
:10077000800000F1E020C0F80011704700F01F0277
:10078000012191404009800000F1E020C0F80012F2
:1007900070474907090E002806DA00F00F0000F143
:1007A000E02080F8141D704700F1E02080F800146C
:1007B0007047000007480021C0F84011C0F84411FC
:1007C000C0F84811C0F84C11C0F80011C0F804116D
:1007D00003F04CB80010014002F096BF02F0E0BAFE
:1007E000F0B598480023021D01780126101D4FF036
:1007F000805406290BD115782D0708D10578C5F34B
:100800000315032D06D0042D04D0052D02D0062992
:1008100007D00EE0B4F824538B4FC5F304253D6098
:1008200002E015782D0704D10578C5F30315032DD3
:1008300002D0062904D00FE0854F844D7D670EE07D
:1008400015782D0708D10578C5F30315032D06D0BB
:10085000042D04D0052D02D0062907D00EE0D4F8CF
:1008600044527C4FC5F342353D6002E015782D07B8
:1008700004D10578C5F30315032D02D0062906D04F
:1008800011E0754D2F6827F080772F600EE0157806
:100890002D0708D10578C5F30315032D06D0042DC7
:1008A00004D0052D02D006290AD011E04FF0804572
:1008B000C5F80C31C5F81031664D2D1F2B6002E0D4
:1008C00015782D0704D10578C5F30315032D02D043
:1008D000062905D00CE05F4F032564373D600AE030
:1008E00015782D0704D10578C5F30315032D02D023
:1008F00006290DD014E0594F05253D60574D783538
:100900002E60564D08352B603F232D1F2B6002E0D3
:1009100013781B0704D10378C3F30313052B02D00C
:10092000062957D062E04E4B1B684E4D2B604C4B56
:100930001B1D1B682D1D2B60494B08331B682D1D8B
:100940002B60474B0C331B682D1D2B60444B103321
:100950001B682D1D2B60424B14331B682D1D2B6013
:100960003F4B18331B683F4D20352B603C4B1C33ED
:100970001B682D1D2B603A4B20331B682D1D2B60EF
:10098000374B24331B682D1D2B60354B28331B68D8
:100990002D1D2B60324B2C331B682D1D2B60304BD3
:1009A00030331B682F4D40352B602D4B34331B6883
:1009B0002D1D2B602A4B38331B682D1D2B60284BB7
:1009C0003C331B682D1D2B60254B40331B682D1DB0
:1009D0002B6002E013781B0708D10378C3F30313DD
:1009E000032B06D0042B04D0052B02D0062907D0F8
:1009F00019E0D4F858121C4A01F04F01116002E0CE
:100A0000117809070FD10078C0F30310032803D031
:100A1000042801D0052806D114480168C90702D06E
:100A20006FF0010101600C487438016841F47001F5
:100A30000160BFF34F8FBFF36F8F0E490C48086002
:100A4000F0BD0000E00F00F0403501400DF0ADBA00
:100A500000C007403C050040FCED00E0105600409F
:100A60000404001020C50040E40E004000040040D3
:100A70000090D003C00000200448017F04480029F2
:100A8000024901D003F007B802F076BFAC020020A3
:100A90000020004002E008C8121F08C1002AFAD155
:100AA00070477047002001E001C1121F002AFBD1EE
:100AB000704700000121202803DA814005480140E9
:100AC00003E0402802DA2038814009B10120704754
:100AD00000207047FC06FFBD082806D228B1012877
:100AE00003D0042801D00120704700207047022065
:100AF00000F054BB10B504468378827A41780078C0
:100B0000C2DF002813D123796279E1882078D3DF0E
:100B100000280CD1E1782078CDDF002807D1A1781A
:100B2000C90704D12189002901D02078D1DF10BD67
:100B300010B5164990F82C200B789A4224D14978A8
:100B400009B1402920D190F82D0007280ED005DCEE
:100B5000012810D0022817D10B200DE0082803D05F
:100B6000802811D1072007E0012005E0BDE81040F2
:100B7000002002F079B8002000F0F4FB002803D038
:100B8000BDE8104000F0CCB910BD000028000020E6
:100B900010B50C4602F030F8042C04D8BDE8104023
:100BA000014800F0CCB810BDB801002038B50A7873
:100BB00002700023C360036143610C460093BDF8DB
:100BC000001001839DF802108176C361064803215D
:100BD000008801EB004005A101F07AFE2046BDE847
:100BE0003840FFF787BF0000C4000020414E54206A
:100BF00048524D206368616E6E656C2025752069D2
:100C00006E6974004A88FF23037043708370C2705A
:100C1000120A02710A7842714A788271084602F01B
:100C200039B90A680270130A4370120C82700846C0
:100C300002F09AB94A880B7803704270120A8270E7
:100C4000084602F0D7B90A7802704A7842708A786A
:100C50008270084602F00EBA4A880B780370427020
:100C6000120A8270084602F05FBA0246084692F8FD
:100C70002C100378994205D192F82D10032901D147
:100C800000F09BB8704730B493688360536843604A
:100C900014789C7052785A700CB1012200E0022244
:100CA000DA7000221A7101221A7030BCFFF77EBF81
:100CB00010B5044600F081F8064803212278008828
:100CC00001EB004004A101F003FE20780021C4DF05
:100CD00010BD0000C4000020414E542048524D2059
:100CE0006368616E6E656C202575206F70656E009F
:100CF000017A002904D100F12001183002F00EBC65
:100D00007047017A002904D100F12001183002F067
:100D100013BC704730B408C940F8203B3AC93AC008
:100D200000F8282C40F8181C002140F8241C40E949
:100D30000811A0F1100130BC183802F00BBC70B5DE
:100D40000446007A28B104F1200104F1180002F0F1
:100D50000CFCA2694FF47040B0FBF2F3E5684FF46D
:100D6000C056FC35E560D4E90401801941F1000169
:100D7000C4E90401C00B50EA414007D06D1CE56096
:100D8000208A0021C0F30E00C4E90401B5FBF3F191
:100D900001FB03F000290FD025686A732568EA89F2
:100DA0000244EA812568D21AEA832268137B194437
:100DB0001173E168081AE06070BD1CB5044669460D
:100DC00002F03CFB20786A460821C7DF002801D0EA
:100DD00000F0A6F81CBD00000149CCDF7047000000
:100DE0001800002006490020497819B1102903D0C5
:100DF000402904D1012000E0022000F0B3BA70477E
:100E000028000020024A10705170002000F0AABA99
:100E10002800002070B50024064D06E06868012116
:100E200010F8340001F002F8641C28788442F5D3ED
:100E3000002070BD2C000020F8B515460C46064673
:100E4000052A01D20720F8BD01F0D6F818B901F043
:100E5000A5F80028F7D1104900204E600C70C1E9B8
:100E600002500E4D08610DE006EBC4006968009168
:100E700081788DF801100078094A694601F028F858
:100E80000028E0D1641EE4B2EED2BDE8F840054A85
:100E90000021024800F058B82C000020543D00000A
:100EA000291800008917000001F0C8FD01F014FCAA
:100EB0000028FBD1104C0121208801EB00400FA13C
:100EC00001F002FD10480068C00700D000BE208875
:100ED000022101EB00400DA101F0F6FCBFF34F8FA2
:100EE0000948E43801680D4A01F4E06111430160EA
:100EF000BFF34F8F00BFFDE74801002046617461DA
:100F00006C206572726F7200F0ED00E053797374BB
:100F1000656D207265736574000000000400FA05B9
:100F20000EB500210091CDE901106A4644F201009E
:100F3000FFF7BAFF0EBD000002480169491C0161BC
:100F40007047000098010020074B9B7823B12AB11D
:100F500020B10068037C1BB1082070470720704750
:100F60004174426100207047EC02002070B502F02D
:100F7000D3F9104800240B21047044700E4D817089
:100F800014206C602C706C70FFF7E2FB07211420BA
:100F9000FFF7FFFB1420FFF7E6FB0848046007217A
:100FA0001120FFF7F6FB0548001F0068A86000202D
:100FB00070BD0000EC020020400000200815014038
:100FC0002DE9FC47DFF8789099F8023073B368B3E5
:100FD000052902D20720BDE8FC87436933B3437C6F
:100FE000012B25D0002704460025884616468DF89B
:100FF0000050684600F038F801A802F01FFEC8B1A2
:10100000012101700F4944600968C0E90218C0E974
:1010100004769DF8040089F801009DF8000000F0B6
:1010200047F81420FFF7AAFB2846D4E70820D2E7A8
:101030000F46D8E704259DF8000000F039F8F3E7E3
:10104000EC020020041501400649897839B130B11D
:10105000416921B100210174022102F0E3BB0820A3
:1010600070470000EC02002030B5EFF3108172B63B
:101070000D4A9468012324B10370002900D162B69F
:1010800030BD93604FF0E023D3F88051074C2540EA
:101090001560C3F88041D3F8844154605A17C3F8EF
:1010A000842100220270E8E7F8030020FC06FFBD5F
:1010B0000B498A68002A11D000280FD1EFF3108065
:1010C00072B60B684FF0E022C2F800314B68C2F8EC
:1010D000043100228A60002800D162B67047000007
:1010E000F80300202DE9F041064608680C46411C33
:1010F0004FF0A0474FF0010506D005FA00F1C7F800
:101100000815206801F0C8F96068411C02D0002170
:1011100001F0B9F93079204901EB4010A169007F55
:1011200000283068C0F8241525D0607D227D316804
:101130001043C1F86C05D4E900123068C0F80C15F2
:10114000C0F8142524E0A068411C02D0002101F061
:101150009AF9E068411C05D08540C7F80855E06859
:1011600001F09AF9D4E902123068C0F80825C0F8F5
:101170001015BDE8F081607D217D32680843C2F81A
:101180006C05D4E900123068C0F81425C0F80C15BD
:10119000207D0128D7D0ECE7AC02002007490B5C8A
:1011A0004FF0A041D1F804250120984020EA020325
:1011B000C1F808351040C1F80C0570471C3D00000F
:1011C0000249085C012101F082B900001C3D0000C9
:1011D0000249085C002101F07AB900001C3D0000C2
:1011E0000649095C4FF0A040D0F80405C84010F053
:1011F000010000D0012080F0010070471C3D00007C
:101200007CB50024084E25460122305D0095002360
:101210001146019501F0F8F8641C042CF4D3BDE8E4
:101220007C4000F003B800001C3D000010B5002415
:101230002046FFF7C5FF641C042CF9D310BD10B580
:1012400000242046FFF7C4FF641C042CF9D310BD12
:1012500010B50246064B4FF0FF3000215C5C944213
:1012600001D1084610BD491C0429F7D310BD000068
:10127000203D00002DE9F0470D468146FFF7E8FFCD
:101280000446042836D2DFF874801B481C4EA8F1AF
:101290000C0725B3012D0ED0022D2BD104EB4400F9
:1012A00030444578002D25D0B968002922D0284641
:1012B000BDE8F047084704EB4401755C0E447178C3
:1012C00049B10E4A4FF40041093A8068FFF778FEB1
:1012D00008B987F80390B17808F80410E2E780684D
:1012E000FFF7B2FE04EB4401314418F804008D7896
:1012F000A842D7D0BDE8F087243D000014000020AC
:101300002802002070B50023042810D20D4D00EBF8
:101310004004012A02D101290CD00022094E00EB21
:101320004000304461B1012906D0022906D00723CC
:10133000184670BD0E30C2B22A55F9E74270F7E781
:101340008270F5E7280200200E2804D00F2805D16E
:101350000348FFF7CDBC0248FFF7D3BC704700003D
:10136000B8010020044A014600201279D20702D0B9
:10137000084600F04DB870470800002070B50646DA
:101380001E480024C0E90161B00720D500250122D4
:1013900011462846FFF7B6FF6D1C0446042D02D205
:1013A000002CF4D013E094B940F266620421144892
:1013B000FFF742FD04000AD1FFF72CFD040006D11F
:1013C0000F48104A0021001FFFF7BEFD0446F0073A
:1013D00001D0FFF715FF74B909480B4A00210C38FA
:1013E000FFF7B2FD040006D10548084A012108387C
:1013F000FFF7AAFD0446204670BD0000080000204B
:10140000303D000061160000D1190000EF0A000015
:101410002DE9F05F6A4C054600266078B34618B1A6
:1014200084F801B000F0BCFA664F4FF47A694FF4CB
:10143000C87A4FF00108182D62D2DFE805F0AC0C35
:101440000C31404D62676B746B74BE7D7D7D7D7D1C
:10145000ACAFB2B5BEBE0020FFF7C2FE00284FF011
:10146000000008D0FFF7ACFE022D02D14FF4E1607E
:1014700008E0484606E0FFF7ABFE022D01D1C82088
:1014800000E05046410CC0034FF4FA72801841F15D
:101490000001257052000023FEF7D2FF01462AE02A
:1014A0000020FFF79DFE00284FF0000004D0FFF75A
:1014B00087FE4FF44870E5E7FFF78AFEDFE700207C
:1014C000FFF78EFE00284FF0000002D0FFF778FEF5
:1014D000CFE7FFF77DFED4E70020FFF781FE00286D
:1014E0004FF0000002D0FFF76BFE01E0FFF770FE47
:1014F000257041F69A1100223868FFF761FD064613
:1015000046E00020FFF74AFE257008E0002051E089
:1015100025703DE084F801800120FFF73FFE0022A6
:1015200040F6CD41E8E784F801800120FFF736FE60
:1015300000224FF48041DFE77868FFF785FD06461B
:10154000D5F1110000D02EB10220FFF739FE84F84A
:1015500002B01DE0012816D980B2C8214843C11746
:10156000C90341EA5041C0034FF4FA72801841F1B7
:10157000000152000023FEF763FF01460022786855
:10158000FFF71EFD06460220FFF722FE84F80280C8
:101590003046BDE8F09F00F003FAB9E700F000FA2A
:1015A000B4E700F0FDF904E000F0FAF90020FFF7DD
:1015B0000FFE0120FFF70CFEAAE7FFF740FEA7E7AA
:1015C00008000020243D0000F8B5871C00208DF89D
:1015D00000000E4601256846FFF746FD124C2068C4
:1015E0003060D4E90001401AA168091ABE1C06E067
:1015F00000F074FAD4E90001401AA168091A491CE4
:101600008E42F5D8A1682068084004EB8000C168CC
:1016100041F00301C1602068384420609DF800005B
:10162000FFF746FD2846F8BD1005002030B482685B
:101630000468531C8360A154D0E901128A4202D38A
:1016400030BC00F0E8BD30BC70470000034803C860
:10165000814201D101207047002070471005002011
:1016600000780221FFF706BE05494FF0FF32082837
:1016700041F8202002D3084480F848207047000039
:1016800054020020F0B54FF0FF3512B100230826B8
:1016900001E008230C260C4C05E000BF54F8237031
:1016A0007F1C04D05B1CB342F8D32846F0BD26183B
:1016B0005DB286F8305044F82310002AF5D1E118C5
:1016C00081F84800F1E70000540200200249084474
:1016D00090F9300070470000540200202DE9F05FBF
:1016E00026484168F1B3DFF898B00E688146DBF810
:1016F000004087688078E11B21F07F45ED1CB0B980
:10170000DFF880804FF48030C8F84403C8F8040341
:101710001120FFF71DF81120FFF725F84FF0010AFF
:10172000C8F800A02F2000F011FB89F802A0B542F4
:1017300000D23546124BE8193C3320F07F40186048
:10174000DBF800105A46091B21F07F41001B20F0F6
:101750007F40C91C81420FD9106818602F2000F00B
:10176000F5FA00E004E0BDE8F05F1120FFF706B8ED
:10177000BDE8F05F01F0D0BDBDE8F09F4000002063
:1017800004150140001001402DE9F041002601251B
:10179000144C22E06068226900EBC607387805FA2D
:1017A00000F1114217D08A43226100F0EDFB02469E
:1017B0003878E36805FA00F1194002FA00F399421B
:1017C00009D17978012901D0012100E0002151409F
:1017D0007A6802B19047761CF6B220788642D9D357
:1017E000BDE8F0812C0000200E4910B50A784C7835
:1017F0000023A24212D0521CD2B20A70022A00D197
:101800000B70084A0B780C3252F82320026088686B
:10181000104420F07F408860012010BD036000204C
:1018200010BD0000400000202DE9F041124E074697
:101830000125BD403068FFF707FC00280DD10F4C93
:101840002069284207D1384600F09EFB0028E06856
:1018500005D0284304E0A8432061BDE8F081A843F7
:10186000E060206928432061A1683068BDE8F0414C
:101870000022FFF7A5BB0000543D00002C00002013
:101880002DE9FC5F0E008346DDE90C47C6F1000040
:1018900098469246814600D40846012503E000BFE1
:1018A00090FBFAF06D1C5045FADAA84500D9454680
:1018B00024B1002E01DB780700D5641EB80702D5DD
:1018C000B8F1000F0AD0F80708D13CB1A54205D203
:1018D00020215846641EFFF7A9FEF6E7002E02DA23
:1018E0004E462D2102E0780703D52B215846FFF7FD
:1018F0009DFE07F0030002280BD1B8F1000F08D1BC
:101900003CB1A54205D230215846641EFFF78EFE39
:10191000F6E7CDE90047434652463146584602F0C5
:1019200033F9BDE8FC9F000070B50E46044600790F
:1019300018494FF4A27501EB4010017F2068A1B156
:101940004FF4887101F09FFA4FF49071206801F014
:101950009AFA4FF49271206801F095FA29462068AE
:1019600001F091FA0C49206809E04FF48E7101F002
:1019700079FA2946206801F075FA08492068C0F80C
:101980000413206800F04FFA3146BDE8704000F0C3
:101990002EBA0000AC0200201003020080000200FA
:1019A0000A4810B5807860B1002401E0022C06D00E
:1019B0002046FFF705FC641C042CF7D310BD03245C
:1019C000F6E7BDE81040FFF731BC0000080000203A
:1019D00003480179C90702D00078FFF719BD7047A5
:1019E000080000202DE9F047394E002780463D468B
:1019F000DFF8E090D6F804A057E003D00446D0F812
:101A00001C8035E099F8002002EB4201521CD2B252
:101A100089F8002009EBC10199F80230091D9A42AA
:101A200001D189F8005048680A780446012A12D08A
:101A3000022A02D0032A3BD108E001F0C3FE00B124
:101A40000127257434E00574C06900E0706800283F
:101A5000F9D170602CE0207C50BB88686060C86859
:101A6000A0600869E0604869A061F07800B1656035
:101A70006268B168184B501A20F07F40984202D239
:101A8000A168084406E0881AA16820F07F408142DE
:101A900002D9081A206000E0256065600120A56079
:101AA00020742046E56101F06FFEB8F10000A4D17A
:101AB00099F8001099F801008142A3D117B9716813
:101AC000514502D00120BDE8F0870020FBE700006F
:101AD00040000020EC020020FFFF7F0070B588B0BE
:101AE000214800F0D1F82048001F064600F0CCF84D
:101AF0001E4DD5E9014105E0C0F3891202EB90507B
:101B0000641C044404EA010005EB8000C0688207FD
:101B1000F2D000200DF1080204EA010305EB830373
:101B2000641CDB6842F82030401C0228F4D3029881
:101B300000F00300012808D002280AD102980321EE
:101B400001EB905004EB900403E00298C0F3831083
:101B500004443046002101AAFEF72BFC002800D0E7
:101B60006C6008B070BD000028090020100500203E
:101B700010B50020FFF7F6FB08B1FFF7D1F90120FF
:101B800010BD000086B002F071F801F0BDF808B198
:101B9000FFF7C6F901F088F808B1FFF7C1F9002096
:101BA000FFF71AF908B1FFF7BBF914220949684693
:101BB000FEF77CFC002269460748FFF7ABF801F00E
:101BC00083FB00BF00F088FD0028FBD101F02AF85C
:101BD000F8E70000083D0000B80100202DE9F047BB
:101BE000C7880446181D16468946B0FBF7F1B0FBBE
:101BF000F7F207FB12009A193A44D21CB2FBF7F233
:101C0000DDF820A001E02468491E0029FBD13D1A1F
:101C10008846B54216D818E0BAF1000F05D0211851
:101C200009EB08002A46091D04E0204409EB0801DD
:101C30002A46001DFEF73AFC00202468761BA844C3
:101C4000B74201D9354600E03D46002EE4D1BDE85B
:101C5000F087000030B5024669B100F0D7FE0021E0
:101C6000084C0BE001EB410304EB830315685B8830
:101C7000AB4202D11160002030BD491C8142F1D33A
:101C8000052030BDC400002008B501216A46FEF7DA
:101C900083FB009808BD38B5044600258DF8005038
:101CA0006846FFF7E1F921686268086890420ED93A
:101CB000401E08600178238AE26801FB0325227A2E
:101CC0002168101AC0B20A79824200D208719DF8C8
:101CD0000000FFF7EDF9284638BD38B5054600206D
:101CE0008DF800000C466846FFF7BEF9E868298ABF
:101CF000201AB0FBF1F12A681068431C13600170D0
:101D00009DF80000FFF7D4F938BD10B530B1017A65
:101D100042680368891AC9B21A6006E00E2010BD35
:101D200003681A68541C1C601170491EC9B2F7D2AE
:101D3000006800210171084610BDC20800F00703C9
:101D40000120895C984008407047000000283ED080
:101D50001F49204A096800BF00BF00BF00BF00BF85
:101D600000BF00BF00BF91422FD000BF00BF00BF27
:101D700000BF00BF00BF00BF00BF00BF00BF00BF6B
:101D800000BF00BF00BF00BF00BF00BF00BF00BF5B
:101D900000BF00BF00BF00BF00BF00BF00BF00BF4B
:101DA00000BF00BF00BF00BF00BF00BF00BF00BF3B
:101DB00000BF00BF00BF00BF00BF00BF00BF00BF2B
:101DC00000BF00BF00BF00BF00BF0138C3D17047D4
:101DD000C00000200024F40000F01F020121914007
:101DE0004009800000F1E020C0F8801170474907E9
:101DF000090E002806DA00F00F0202F1E02282F854
:101E0000141D03E000F1E02282F8001400F01F022C
:101E1000012191404009800000F1E020C0F88012CB
:101E2000C0F800117047000B40B270472DE9F04137
:101E30008846054601F0A8F9234E002828461AD006
:101E4000FFF744FC304490F848008009032802D092
:101E500001280ED007E04FF0A040D0F81005E84070
:101E600010F0010F05D003212846BDE8F04100F035
:101E70001DBB0221F8E701F093F9002822D0284683
:101E8000FFF724FC04464FF4807000EB84000F4FF2
:101E900081B207EB8400D0F8102542F00102C0F8AF
:101EA0001025084600F032FBB8F1000F0AD0284692
:101EB000FFF70CFC56F82000002803D00120A040BA
:101EC000C7F80403BDE8F081540200200060004020
:101ED0002DE9FC41DFF8A480044608EB040000274C
:101EE00090F930001346C0170E46401C01D0082759
:101EF00041E0F27819462046FFF7C4FB0546401C36
:101F000038D0B07850B14FF0A04000EB8400D0F84A
:101F1000001721F00201C0F8001707E000217378D4
:101F2000204600910A46019100F080FAF078C0B195
:101F30001348317800EB8500D0F81025114B1A407A
:101F4000C0F810254FF4F8524FF4403302EA04224F
:101F500003EA01410A43D0F810150A43C0F81025DE
:101F600009E008EB0500327810F8481F41EA8211B9
:101F7000017000E004273846BDE8FC8154020020CF
:101F800000600040FFE0FCFF4FF0A041D1F81015C9
:101F9000C14011F0010000D00120704770B5144D10
:101FA00095F8540008B1082070BD0020411E2A1881
:101FB000401CC0B282F830102028F8D300242046FC
:101FC000FFF752FB641CE4B20C2CF8D30721062067
:101FD000FFF70DFF4FF4BE7000F098FA05494FF07F
:101FE0000040C1F80403012085F85400002070BDB2
:101FF0005402002000600040034890F8540000287C
:1020000000D0012070470000540200200121B1EBF4
:10201000507F01D101207047002070472DE9F04129
:1020200005460079164F904607EB40140E46E07EB9
:1020300010B10820BDE8F081707F20772846FFF7B7
:1020400051F85FEA080060603169216003D0317F98
:102050002846FFF769FC287907EB4010007F00282D
:10206000286801D0082100E00421C0F800150020F4
:10207000E0752076A0750121E176A076DAE7000010
:10208000AC0200202DE9F047054600793F4E90460E
:1020900006EB40140F46207F18B10846FFF7B6FF45
:1020A00030B1284600F074F820B11120BDE8F08767
:1020B0001020FBE784F81680A7600027A782287904
:1020C0004FF0010806EB40143E46207F00282868A8
:1020D00025D04FF49079494600F0D5FE4FF4AC7A04
:1020E0005146286800F0CFFE2868A17DA268C0F89C
:1020F0004425C0F848152868C0F808806068F0B921
:102100004946286800F0BAFE80465146286800F02B
:10211000B5FE58EA0001F3D058BBA7750FE04FF4A5
:102120008E7A514600F09EFE2868C0F8088021464D
:10213000286801F0D5FB61684FF4807089B13046A2
:10214000B4E75146286800F088FE10B9A08A4845D7
:10215000F7D1A08A484505D02146286801F0C0FB88
:1021600000E08146A08AA17D8842EAD3A08A484542
:1021700001D10F26D1E75146286800F06EFE0028F5
:10218000F9D02868C0F80C80C7E70000AC02002036
:102190000079044901EB4010807D002800D0012027
:1021A00070470000AC02002070B504460079114968
:1021B000002601EB401520682A7FC0F8006568689A
:1021C00088B1207901EB4010007F0028206801D001
:1021D000094901E008498C39C0F808132068FFF765
:1021E00022FEFFF7F9FD204600F0E6FFEE766E6076
:1021F00070BD0000AC020020100302000FB408B54F
:102200000399002904D004AA00926A4600F00FF84E
:1022100001B05DF814FB10B582680446002A05D0B1
:10222000D4E90403216898470020A06010BD2DE97F
:10223000FC4791460C00804676D014F8011B39B15A
:1022400025290ED04046FFF7F1F920780028F4D177
:1022500098F80C00002867D04046BDE8FC47FFF71F
:10226000DABF0020012221782B291BD02D2902D092
:10227000302908D102E040F0010001E040F0020006
:10228000641C002AEFD100252A290ED02178A1F163
:1022900030020A2A11D205EB850201EB4205641CCB
:1022A000303DF1E740F00400EAE7D9F800100B1DDB
:1022B000C9F800300968641C0D44217800232E29D8
:1022C0000BD114F8011FA1F130020A2A05D203EB49
:1022D000830201EB4203303BF3E76C290DD0682900
:1022E0000BD0692921D00BDC252918D0582931D0F1
:1022F00063290ED0642915D117E014F8011FECE70B
:10230000702969D0732932D075291BD0782909D159
:1023100020E0D9F80000011DC9F8001001784046FE
:10232000FFF784F9641C90E76CE0D9F800100A1DEF
:10233000C9F800200968CDE900500A224046FFF79D
:102340009FFAEFE7D9F800100A1DC9F800200968C4
:102350000A2206E0D9F800100A1DC9F80020096811
:102360001022CDE90050404601F00EFCDAE7D9F822
:10237000001000270A1DC9F800200E68C00705D10B
:1023800012E04046761C7F1CFFF750F93178002997
:10239000F7D104E0202140466D1EFFF747F9BD420A
:1023A000C0D9002DF6D1BDE74EB13046FEF7A2F8F8
:1023B000074604E0202140466D1EFFF737F9BD4275
:1023C00006D9002DF6D103E04046761CFFF72EF922
:1023D00031780029F8D1A5E7D9F80000011DC9F826
:1023E0000010056830214046FFF720F9782140466B
:1023F000FFF71CF908200021CDE900010346102257
:102400002946B0E7BDE8FC8770B541EA4201DDE945
:1024100004564FF0A04441EA830141EA052104EB50
:10242000800041EA0641C0F8001770BD70B541EA6E
:102430004201DDE904564FF0A04441EA830141EA3C
:10244000052104EB800041EA0641C0F8001770BD89
:1024500070B541EA4201DDE904564FF0A04441EA7B
:10246000830141EA052104EB800041EA0641C0F8FE
:10247000001770BD1CB5002100910B46012201918F
:10248000FFF7E6FF1CBD1CB500220B46009211466B
:102490000192FFF7DDFF1CBD1CB5002100910B462A
:1024A000012201911146FFF7D3FF1CBD4FF0A0425E
:1024B00002EB8000D0F8002722F44032C0F8002759
:1024C000D0F8002742EA0141C0F800177047012206
:1024D0004FF0A043824011B1C3F808257047C3F8FC
:1024E0000C25704718B5084B6C4601441B680093D7
:1024F00006E000BF54F82030D3F81035401C08C265
:102500008142F7D818BD0000503D0000034908B5CE
:102510000844002101600068009008BD0060004090
:1025200002494058012800D0002070470060004058
:1025300030B5124B01460020D3F81044224609E082
:10254000157A854205D1401C0A28F7DB4FF0FF3091
:1025500030BD5268002AF3D1421CF9D00872D3F87A
:1025600010242AB152684A60D3F81024516030BD5B
:102570000022C3F810144A6030BD0000100500208E
:10258000F0B595B01C4615460F4608461A9E00F059
:102590000DFB182109A8FDF7A2FF0E96CDE90954FD
:1025A0000023082203A9384600F01AFB059806907C
:1025B0000498ADF81C0000208DF820000398082630
:1025C00000F00300012802D002281DD03CE003984F
:1025D0003346850AC0F3C2008DF81E0003980FA988
:1025E000C0F380008DF81F000398C0F38314A2008D
:1025F000384600F0F5FA09A8009006AB22460FA96C
:10260000284600F02FFA1FE00398840DC0F3C200A3
:102610008DF81E000398C0F380008DF81F00082C71
:1026200001D2254600E0082533462A460FA9384640
:1026300000F0D6FA2E44641B09AB06AA29460FA85F
:1026400000F060F9002CEAD1384600F0B8FA15B075
:10265000F0BD7047012001F067B9000010B50448D3
:10266000FFF7A2FDBDE81040002001F05DB90000B9
:102670006000002008B5034A00924023024AFFF799
:102680007FFF08BD85350000100400200A4A01299B
:1026900002EBC00007D0022907D0032907D0042984
:1026A00007D000207047022070470420704700794F
:1026B00070474079704700002840000010B5FFF7D0
:1026C000C9FF04210348FFF733FF02490120487284
:1026D00010BD0000680000202DE9F04F8DB0FEF71E
:1026E000B5FF18B100200DB0BDE8F08F744800218F
:1026F000C0F81814BFF34F8FD0E9014604EA060171
:1027000000EB81014FF000090AE000BFC1F389121C
:1027100002EB9151641C0C4404EA060100EB8101B8
:10272000C9688A07F2D0002103AA804604EA06009D
:1027300008EB8000641CC06842F82100491C434635
:102740000229F3D3039800F00300022806D00128E1
:1027500003984FD0C04380077ED0ACE0039850224E
:10276000810D8A46B2EB905F00D850210D4665F38B
:102770009F5003900831534800F0CFF907006CD008
:1027800000F014FA4B46082203A9384600F02EFA4E
:1027900004EA0601701A8000001D09F1080B854249
:1027A00021D9474E0C3630B1C2B208EB8101281A4C
:1027B00091460C3104E03146EAB20026914630469B
:1027C000C5B25B46384600F011FA0BEB09032EB197
:1027D0002A4631464FEA070000F008FA0AF10300E2
:1027E00004EB90043BE008EB81015B462A46384647
:1027F0000C31F1E7C0F38310062800D306200399BB
:1028000060F38911C1F38310801C039181002D486E
:1028100000F083F907004ED000F0C8F94B460822BB
:1028200003A9384600F0E2F909F1080900250DE096
:1028300004EA060008EB80014B46042238460C31BE
:10284000641C00F0D3F909F104096D1C0398C0F36E
:102850008310A842ECD801E00BE02CE05FB3D8F87D
:102860001054D8F81804464690B1384600F0A7F93D
:1028700021E0D3F8180400283FF435AF1BE0687A54
:10288000012804D1296828460A68394690476D68AE
:10289000002DF4D1384600F092F900208DF80000A8
:1028A0006846FEF7E1FBD6F8180400B974609DF89D
:1028B0000000FEF7FDFBFEF7C9FE80F0010012E705
:1028C00010050020BC3D000000231A4600F0D4BED5
:1028D00008B5012300926A4600F0CEFE08BD1CB583
:1028E000CDE9002302236A4600F0C6FE1CBD7FB579
:1028F000DDE908458DE83C0004236A4600F0BCFE93
:102900007FBD00002DE9F0470E4680461C469246EA
:1029100008293ED894F80C900020207319461046E0
:1029200000F0A4FC0025B54206D218F805201AA133
:102930002046FFF763FC03E019A12046FFF75EFC89
:102940006D1C082DEFD317A12046FFF757FC00257B
:10295000B54210D218F80570FDF7A4FD0068C05DFF
:1029600010F03E0F01D03A4600E02E220EA1204684
:10297000FFF744FC03E00DA12046FFF73FFC6D1C70
:10298000082DE5D301222146504600F051FC84F881
:102990000C90BDE8F0870000202530327800000060
:1029A000202020007C0000002563000020000000A3
:1029B000114810B5FF218160002101604160C0F81D
:1029C0001814C0F8141480F81C140C4800F0F5F822
:1029D00000280FD10A480B490B4B401AC1080020B0
:1029E00005E000BF00EB400223F82200401C8842B3
:1029F000F8D3002010BD000010050020BC3D0000F1
:102A0000A040000028400000C40000200248034904
:102A1000401AC00870470000A04000002840000095
:102A200013B56846FFF716F908B100201CBD02482F
:102A3000009950F831001CBD2840000070B50848CE
:102A40000125D0F8104480F81C5405E06572216817
:102A50002046496888476468002CF7D170BD0000A3
:102A6000100500202DE9FF4781460C9D00200C46F3
:102A70002F7B2873984616462946184600F0F6FB29
:102A8000072E42D2DFE806F004090F161F2A36008F
:102A900049462846FFF7B2FB37E0494628462268F8
:102AA000FFF7ACFB31E0D4E9002349462846FFF7A5
:102AB000A5FB2AE0A0680090D4E9002349462846F7
:102AC000FFF79CFB21E0D4E90201CDE90001D4E944
:102AD000002349462846FFF791FB16E004F1080061
:102AE00007C88DE80700D4E9002349462846FFF7C8
:102AF00085FB0AE004F108000FC88DE80F00D4E957
:102B0000002349462846FFF779FB00222946404624
:102B100000F08EFB2F73BDE8FF872DE9F041058A99
:102B200080462D1F4819C01CB0FBF5F0C6B24046C8
:102B3000FFF7B1F8041E19D0002020710120607148
:102B4000E58000272546761EC4F800800BE040464D
:102B5000FFF7A1F860B16179491C617128600546F1
:102B60007F1CC0F80080B742F1D32046BDE8F08159
:102B7000204600F002F80020F8E72DE9F041457901
:102B800001466B1E002201E00968521C9A42FBD3E9
:102B90000F680146002605E038460C68FFF79DF8EF
:102BA0002146761CAE42F7D3BDE8F08108B501217D
:102BB0006A46001DFDF77BFB08BDFFF7A6B838B5D8
:102BC0000446001D01216A46FDF77EFB009810F0C7
:102BD000FF0F04D12046BDE83840FFF7CEBF38BD17
:102BE00038B501240094FEF7F9FF38BD38B500244C
:102BF0000094FEF7F3FF38BD70470000064910B59A
:102C000000204870091D0860BFF35F8F0349044826
:102C100000F0FCF8002010BD54000020843D0000AE
:102C20000404002008B500208DF800006846FEF777
:102C30001BFAF1EE100A20F09F00E1EE100ABFF33C
:102C40005F8F08494020C1F880029DF80000FEF720
:102C50002FFA00F0B7F808B13EDF08BD20BF40BF33
:102C600020BF08BD04E000E0F8B504460D4801218E
:102C70006A46FDF737FBBFF35F8F002500280AD1B6
:102C80000121084E042C09D0301F427822B100BF28
:102C9000BFF35F8F3560F8BD0470417000F086FCB3
:102CA000F6E70000580000200EB5034A07CA8DE879
:102CB00007006846FADF0EBD443E000030B58FB015
:102CC0000DF12D040BAD6A4621462846C1DF30B117
:102CD000052814D00FB0BDE83040FEF721B90949EE
:102CE0000CA800F093F806E0D0E900316846984758
:102CF0000CA800F0A2F80E980028E4D0F4E70FB07A
:102D000030BD0000383E000038B5184C207808B1BE
:102D1000082038BD0125A570002000F061FB1128B6
:102D200021D0002000F074FB114812A21B4900685A
:102D30000090684610DF0028EBD12570A07060700D
:102D40000721162000F02BFB08B1FEF7E9F8072158
:102D5000152000F024FB08B1FEF7E2F800F064FC57
:102D6000012000F055FB002038BD0000BC00002011
:102D7000E03D0000333833312D353231642D376476
:102D800066392D323464382D656666332D34363716
:102D9000622D323235662D6130306500A90E00009B
:102DA0000EB50749684600F031F805E0D0E900109B
:102DB0008847684600F041F802980028F6D10EBD19
:102DC000FC3D00000148007870470000BC00002076
:102DD0001FB5684648DF30B1052814D004B0BDE8FF
:102DE0001040FEF79DB8084901A800F00FF806E072
:102DF000D0E900210098904701A800F01EF8039840
:102E00000028E6D0F4E71FBD603E000001600968BD
:102E10004160AFF3008010B5D0E9002153689942BA
:102E200001D1002104E0D1E90034A34202D01946C7
:102E3000816010BD08314160F0E7816800290BD046
:102E4000026892680A44826041684B689A4203D1E2
:102E500008314160FFF7DFBF70474058002800D0BD
:102E60000120704708B5002242504058009008BD2C
:102E7000D0F80403084000D00120704740580028D3
:102E800000D00120704708B5002242504058009001
:102E900008BD000070B5134D04460278288803264B
:102EA00006EB004010A1FFF713FD2888627806EBBF
:102EB000004017A1FFF70CFD6088C0F3090101EB8A
:102EC0004102C2EBC1114FF4007202EBC1018B0A47
:102ED000820A288818A106EB0040BDE87040FFF781
:102EE000FEBC0000D000002048656172742062655D
:102EF000617420636F756E743A202020202020209A
:102F000020202020202020202020257500000000E7
:102F1000436F6D70757465642068656172742072AA
:102F20006174653A202020202020202020202020AD
:102F300020202575000000004865617274206265DC
:102F40006174206576656E742074696D653A202021
:102F50002020202020202020202025752E253033E1
:102F600075730D0A0A0000007CB500683C21400022
:102F7000B0FBF1F201FB1204B0FBF1F2B2FBF1F392
:102F800001FB13214FF46162B0FBF2F21823B2FB94
:102F9000F3F503FB1523074ACDE90014B0FBF2F269
:102FA00005480321008801EB004004A1FFF79FFCC6
:102FB0007CBD000080510100DC00002043756D7570
:102FC0006C6174697665206F7065726174696E6793
:102FD0002074696D653A202020202020202025754E
:102FE00064202575682025756D202575730D0A0AE6
:102FF0000000000070B5094D0446027828880326B9
:1030000006EB004006A1FFF763FC2888628806EB08
:103010000040BDE870400CA1FFF75ABCE80000205A
:103020004D616E7566616374757265722049443ACC
:103030002020202020202020202020202020202090
:10304000202025750000000053657269616C204ED8
:103050006F202875707065722031362D6269747327
:10306000293A2020202020202020307825580D0AC1
:103070000A00000070B50D4D04460278288803262A
:1030800006EB00400AA1FFF723FC2888A27806EB94
:10309000004011A1FFF71CFC2888627806EB004075
:1030A000BDE8704016A1FFF713BC0000F40000203B
:1030B00048617264776172652052657620494420C8
:1030C0002020202020202020202020202020202000
:1030D00020202575000000004D6F64656C202020C5
:1030E00020202020202020202020202020202020E0
:1030F00020202020202020202020257500000000F6
:10310000536F66747761726520566572204944205A
:1031100020202020202020202020202020202020AF
:10312000202025750D0A0A004088C0F3090101EB33
:103130004102C2EBC1114FF4007202EBC1018B0AD4
:10314000820A04480321008801EB004002A1FFF736
:10315000C6BB00000001002050726576696F757370
:103160002068656172742062656174206576656EA1
:10317000742074696D653A20202025752E25303322
:1031800075730D0A0A0000000449084490F93000E4
:10319000082801DB012070470020704754020020FE
:1031A0000449084490F93000082801D201207047F2
:1031B000002070475402002070B5034600791B4977
:1031C00001EB40101968027F4FF0FF30002AD1F860
:1031D0000C25D1F81465D1F80855D1F8104504D064
:1031E000C1F80C05C1F8140503E0C1F81405C1F8D5
:1031F0000C051968C1F80805C1F81005501C02D06B
:103200001046FFF737F9701C02D03046FFF732F94D
:10321000601C02D02046FFF72DF9681C04D0284618
:10322000BDE87040FFF726B970BD0000AC02002079
:1032300010B50C46C17949B11AB109A12046FEF773
:10324000DDFF2046BDE81040FEF7E5BF007A00280C
:10325000F3D0044804A102682046FEF7CFFFECE754
:103260000D0A0000980000202573000070B5044688
:10327000C0790D4600281CD1207A50B1A179A088D0
:10328000FFF704FA0B4951F820200BA12846FEF75E
:10329000B5FFA0880021FFF7C3FB03460549A079CD
:1032A000143951F820202846BDE8704003A1FEF7EC
:1032B000A5BF70BD98000020257300003C25733E1B
:1032C0002025733A20000000114A10B5A2F10C012C
:1032D0001048FDF7D8FC08B1FDF722FE0D48022189
:1032E0004AF6CD320175C28205220276002242766C
:1032F0008176FDF7DDFC08B1FDF712FEFDF772FDEA
:10330000002803D0BDE81040FDF70ABE10BD000044
:10331000FC3C00009801002070B5012670044FF0BD
:10332000E0210025C1F88001084C4010C4F8480392
:10333000C4F8080366602F20FEF708FDA660044C61
:103340002F20A560FEF702FDA57070BD00100140A2
:103350004000002070B50546C87D0C4600284FF49B
:10336000847128460AD0FFF77DFDD5F81805627EE6
:10337000E1688854607E401C607670BDFFF772FD86
:10338000D5F8180570BD1FB501238DF800308DF8F4
:1033900008100192D0E90012684690471FBD70B531
:1033A0000D460446FDF786FB70B12846FDF794FBF9
:1033B00068B16807000E002C0CDA04F00F0101F16F
:1033C000E02181F8140D09E042F2010070BD42F2E3
:1033D000020070BD04F1E02484F80004002070BDF8
:1033E0003EB5044609496846FFF710FD08E000BFF6
:1033F000D0E900212046904730B16846FFF71DFD17
:1034000002980028F4D13EBD11203EBDE43D0000ED
:103410003EB5044608496846FFF7F8FC07E000BFE0
:10342000D0E90021204690476846FFF706FD029844
:103430000028F5D13EBD0000F03D000070B5054606
:1034400040680C460179402904D0427801798B0705
:103450000FD012E0C2780023511CC9B20371C170B1
:103460000329F3D9817809B1012300E00223C37055
:10347000ECE7037883F001060670491C017121789E
:1034800062F306012170007860F3C7111C482170B7
:1034900001F07F020088032101EB004019A1FFF732
:1034A00017FA05F10C01601CFDF7ACFB207800F069
:1034B0007F00052823D2DFE800F01A03090F15006A
:1034C00005F11001601CFDF7ACFB10E005F11401E3
:1034D000601CFDF7AFFB0AE005F11801601CFDF769
:1034E000B2FB04E005F11C01601CFDF7B5FB207880
:1034F000AA6800F07F012846BDE87040104770BD03
:10350000C400002048524D20545820506167652067
:103510006E756D6265723A202575000010B50368FE
:103520000A6889689C1A8C4202D9591A016010BD38
:1035300001210260017110BD10B54B6802688968F5
:103540009C1A8C4202D91144016010BD0021036015
:10355000017110BD0A7B1AB149680160002102E0C7
:103560000968016001210171704710B504460079B6
:103570000028204602D0FFF7DFFF01E0FFF7CEFF73
:10358000206810BD10B5084C0020D2B22070201D5C
:10359000FEF778FD08B1FDF7C3FC6078002802D083
:1035A00021780029FAD010BD5C00002070B5194DBB
:1035B000194C07E0016820788847002829D0154871
:1035C000FFF73BFCA8680028F4D1FFF737FA00BFEB
:1035D000FFF782F80028FBD1207803280CD00228BE
:1035E0000AD0FFF7EFFB00B132DF0C490120086081
:1035F000BFF34F8F20BFFDE7BFF34F8F084801682F
:10360000084A01F4E06111430160BFF34F8F00BF2E
:10361000FDE770BD040400205400002000050040B8
:103620000CED00E00400FA0510B51620FDF742FA93
:1036300080B10F4890F800044009FDF74DFA60B1E1
:103640000C4882684FF480016AB1016841F480013E
:10365000016010BD42F2010001E042F20200BDE84B
:103660001040FDF75DBC4FF0E020C0F8001110BD28
:1036700016E000E0F80300202DE9F843214C8846CD
:10368000054691461F4669461846A668FDF79CFF09
:1036900070B30098811C00220AE000BF01EA060C0A
:1036A00059F8223004EB8C0C491C521CCCF80C301D
:1036B000BA42F3D30246401C304004EB80002B0C8E
:1036C000C36002EA060004EB8002E80652F80C0F21
:1036D00002D540F0040001E020F0040065F3C500CD
:1036E00067F3891068F39F2020F00300401C1060EE
:1036F00094F81C0402E000BFFEF7EEFF0028FBD1A7
:10370000BDE8F883100500202DE9F84F1D4C002579
:103710006846D4E901A6FEF767F8002738B300230E
:10372000009A61681CE0D1F800C00846944503D9AE
:10373000ACEB02020A6015E0A2EB0C0263440760E6
:10374000D0F80CC0C1698146BCF1000F08D006EB6F
:10375000030828F07F48C0E9018CC9F81C500546D1
:103760000029E0D128466160FEF73CF903E02846D5
:10377000FEF738F910B15046FDF7B0FFE770BDE82D
:10378000F88F0000400000200D4B10B5596831B192
:1037900002680C68A24204D8A21A0A60C16158608B
:1037A00010BD0B4603E00B46C969121B21B10C6822
:1037B0009442F8D3A41A0C600260C161D86110BDB4
:1037C000400000202DE9F041144E77683D462C461C
:1037D00003E0844204D02546E469002CF9D11BE0C3
:1037E000D4B1A5420BD1F869706040B90C490120F1
:1037F00088600021B160F0702F20FEF7A7FA2168E1
:10380000E069E86110B102681144016070688742A4
:1038100002D00120BDE8F0810020FBE7400000203D
:10382000001001407CB5064600240D468DF800408E
:103830006846FDF719FC01A800F000FA70B10570A8
:10384000094946609DF8040048709DF80000FDF7A6
:103850002FFC1420FCF792FF20467CBD04249DF829
:103860000000FDF725FCF7E7EC0200202DE9F04110
:10387000194D6C68002C2CD0184800270068A968E6
:10388000B846401A20F07F462068B0420CD8214646
:10389000361A0744E469087C20B181F810808869F1
:1038A00049698847002CEFD129786878814206D190
:1038B000401CC0B26870022801D185F8018006481A
:1038C00069780C3040F82170BDE8F0411420FCF715
:1038D00055BFBDE8F0810000400000200415014004
:1038E00070B50C4605464FF48E71FFF7BBFAA18AFE
:1038F000A068415CA08A401CA082C5F81C1570BD60
:103900001FB500228DF800208DF808108168019104
:103910008275D0E90012684690471FBD0149012019
:10392000087070475C00002010B588B00446202263
:103930000E496846FCF7BAFD1F2000904FF0FF309B
:103940000190029003904FF0EB7006900CB1084A82
:1039500000E0002269460748FEF760FB08B1FDF76A
:10396000DFFA0448001F447008B010BD9C3D000001
:103970001D390000600000202DE9FF470C46054678
:103980004FF40071FFF774FA01274FF40178002615
:1039900018B34FF4927949462846FFF75EFAE0B132
:1039A00049462846FFF75EFAC5F80883A07E00B9AD
:1039B0006F6002208DF80000D5F88004C5F88004FF
:1039C0000390E07D8DF80800E0680190E6752676AA
:1039D000D4E900126846904727E004212846FFF703
:1039E00047FA10B34FF484712846FFF736FAE0B176
:1039F00021462846FFF7AEFCE07D617E884214D167
:103A0000207E38B1617EE268E0752069E06026764C
:103A1000667607E0A07E00B96F60C5F80883E6759A
:103A2000617EE2682046FFF7AEFC4FF48E78414697
:103A30002846FFF712FA88B1A08AA17D884204D2F5
:103A400021462846FFF74CFF08E041462846FFF78D
:103A500009FAA17D11B12046FFF752FF4FF4A27879
:103A600041462846FFF7F9F9002812D0414628467A
:103A7000FFF7F8F9A07E00B12F60E07D002808D0A4
:103A8000E675617EE26804B02046BDE8F047FFF7C6
:103A90007ABCBDE8FF872DE9FF410C464FF49277D1
:103AA00005463946FFF7EAF90026C0B139462846EF
:103AB000FFF7E9F902208DF80000D5F88004C5F879
:103AC00080040390D5F83C058DF80800E06801906B
:103AD000E6752676D4E900126846904724E04FF454
:103AE000887739462846FFF7C9F9E8B139462846AC
:103AF000FFF7C9F9D5F83C05C1B2E07D884213D182
:103B0000207E60B1E268D5F8000220F02000C5F800
:103B10000002207EE0752069E060267601E0E6750F
:103B2000E2682046FFF72FFC4FF4A277394628467B
:103B3000FFF7A4F968B139462846FFF7A4F9E07DFC
:103B400038B1E675D5F83C05E268C1B22046FFF70A
:103B50001AFC4FF4907631462846FFF78FF900287B
:103B60000FD031462846FFF78EF9A07D002808D0F7
:103B7000D5F84C0504B0C1B22046BDE8F041FFF7CE
:103B8000BFBEBDE8FF8100002DE9F05F8346DDE99F
:103B90000A4A994690460D460846012703E000BFB1
:103BA000B0FBF8F07F1C4045FAD2B94500D94F462A
:103BB0005FEACA7012D18CB15FEA8A7002D5B9F19E
:103BC000000F01D0202607E0302605E03146584698
:103BD000641EFDF72BFD0CB1A742F7D35FF0010681
:103BE000B9F1010F02D9A9F1010903E0B5FBF6F023
:103BF000404502D306FB08F6F2E7DFF83C9000BF31
:103C0000B5FBF6F000FB165519F800105846FDF705
:103C10000DFDB6FBF8F6002EF2D15FEACA7009D0AE
:103C2000002C07D0A74205D220215846641EFDF77C
:103C3000FDFCF5E7BDE8F09F5C3D00000A494A78CD
:103C40008B78521CD2B2934200D100220B7893425F
:103C500001D1002070470270487800EB400001EB72
:103C6000C000001D70470000EC02002010B50020CD
:103C7000FEF79EFE08B1FDF753F9FEF71FFDFDF7B5
:103C800075F908B1FDF74CF9FEF7B8FF08B1FDF77B
:103C900047F912490320FDF771FB08B1FDF740F920
:103CA0000F4810210078FDF7ADF808B1FDF738F99D
:103CB0000C4A01210C48FDF747F908B1FDF730F92E
:103CC000094800224FF4FA610068FDF779F90028ED
:103CD00003D0BDE81040FDF723B910BD4913000023
:103CE00098010020390F0000EC3C00007801002012
:103CF0000010003901783100861F0000010000002B
:103D000000000020910B0000980100203C00000002
:103D1000C80000000200000000000000181F11147D
:103D200006071013E80100200802002034020020DA
:103D30000600030075120000070003007512000062
:103D4000100003007512000013000300751200003C
:103D500000000050CC02002003000000303132335C
:103D60003435363738394142434445460000000077
:103D700000000000A0400000A4400000000000007F
:103D8000000000006C3D0000843D000004000000C5
:103D9000752600005D26000053260000FFFFFFFF90
:103DA000FFFFFFFFFFFFFFFFFFFFFFFF000000001F
:103DB000000000000000D601070100007C00002088
:103DC000740000207C000020500400201800000037
:103DD00000000000000000000000000000000000E3
:103DE00001000007D03D0000E03D00000800000099
:103DF000083E0000183E000008000000183E0000C9
:103E0000283E000008000000000000000000000044
:103E10000000000000000000B4400000C4400000AA
:103E20000000000000000000000000000000000092
:103E3000A4400000B4400000283E0000383E0000CE
:103E40000800000001002000300900208000000070
:103E50000000000000000000000000000000000062
:103E6000503E0000603E000008000000004040405E
:103E7000404040404040414141414140404040403D
:103E800040404040404040404040404040050202E9
:103E900002020202020202020202020202202020A8
:103EA0002020202020202002020202020202909004
:103EB0009090909010101010101010101010101002
:103EC0001010101010101010020202020202888856
:103ED0008888888808080808080808080808080862
:103EE000080808080808080802020202400000004A
:103EF0006D3E00007761726E696E67006465627581
:103F0000670000001B5B313B33306D001B5B306D85
:103F1000000000001B5B313B33316D001B5B313B0C
:103F200033326D001B5B313B33336D001B5B313B28
:103F300033346D001B5B313B33356D001B5B313B14
:103F400033366D001B5B313B33376D00696E666F36
:103F5000000000006572726F72000000616E745F95
:103F600068726D00616E745F68726D5F7061676525
:103F70005F300000616E745F68726D5F70616765CD
:103F80005F310000616E745F68726D5F70616765BC
:103F90005F320000616E745F68726D5F70616765AB
:103FA0005F330000616E745F68726D5F706167659A
:103FB0005F3400006770696F74650000756172742A
:103FC00000000000686172646661756C7400000036
:103FD00062616C6C6F6300007077725F6D676D7407
:103FE00000000000617070006E72665F73646800AC
:103FF0006E72665F7364685F616E74006E72665F96
:104000007364685F736F6300C440000000000020A9
:1040100078010000640500000041000078010020E4
:1040200038280000A40A00005C3F000000000300E4
:10403000643F000000000300743F00000000030024
:10404000843F000000000300943F000000000300D4
:10405000A43F000000000300B43F00000000000087
:10406000BC3F000000000000C43F0000000003004F
:10407000D03F000000000000D83F0000000000001A
:10408000E43F000000000300E83F000000000300E0
:10409000F03F000000000300FC3F000000000300B0
:1040A000711B00006B0C000098010020310B000018
:1040B00000000000BD2C000000000000D12D000019
:1040C0000000000001290239FF54200040031F9026
:1040D0003D33543F33F43E334C3F33FC3E330C3FCF
:1040E00033043F33143F331C3F33243F332C3F33DF
:1040F000343F333C3F83443F04B590D0030000007D
:0400000500000201F4
:00000001FF
